ARM GAS  C:\Users\GEBRUI~1\AppData\Local\Temp\cctSxo9Y.s 			page 1


   1              		.syntax unified
   2              		.cpu cortex-m3
   3              		.fpu softvfp
   4              		.eabi_attribute 20, 1
   5              		.eabi_attribute 21, 1
   6              		.eabi_attribute 23, 3
   7              		.eabi_attribute 24, 1
   8              		.eabi_attribute 25, 1
   9              		.eabi_attribute 26, 1
  10              		.eabi_attribute 30, 1
  11              		.eabi_attribute 34, 1
  12              		.eabi_attribute 18, 4
  13              		.thumb
  14              		.syntax unified
  15              		.file	"toneGen3_PM.c"
  16              		.text
  17              	.Ltext0:
  18              		.cfi_sections	.debug_frame
  19              		.section	.text.toneGen3_Sleep,"ax",%progbits
  20              		.align	2
  21              		.global	toneGen3_Sleep
  22              		.thumb
  23              		.thumb_func
  24              		.type	toneGen3_Sleep, %function
  25              	toneGen3_Sleep:
  26              	.LFB0:
  27              		.file 1 "Generated_Source\\PSoC5\\toneGen3_PM.c"
   1:Generated_Source\PSoC5/toneGen3_PM.c **** /*******************************************************************************
   2:Generated_Source\PSoC5/toneGen3_PM.c **** * File Name: toneGen3_PM.c  
   3:Generated_Source\PSoC5/toneGen3_PM.c **** * Version 2.10
   4:Generated_Source\PSoC5/toneGen3_PM.c **** *
   5:Generated_Source\PSoC5/toneGen3_PM.c **** * Description:
   6:Generated_Source\PSoC5/toneGen3_PM.c **** *  This file provides the power manager source code to the API for 
   7:Generated_Source\PSoC5/toneGen3_PM.c **** *  the WaveDAC8 component.
   8:Generated_Source\PSoC5/toneGen3_PM.c **** *
   9:Generated_Source\PSoC5/toneGen3_PM.c **** ********************************************************************************
  10:Generated_Source\PSoC5/toneGen3_PM.c **** * Copyright 2013, Cypress Semiconductor Corporation.  All rights reserved.
  11:Generated_Source\PSoC5/toneGen3_PM.c **** * You may use this file only in accordance with the license, terms, conditions, 
  12:Generated_Source\PSoC5/toneGen3_PM.c **** * disclaimers, and limitations in the end user license agreement accompanying 
  13:Generated_Source\PSoC5/toneGen3_PM.c **** * the software package with which this file was provided.
  14:Generated_Source\PSoC5/toneGen3_PM.c **** *******************************************************************************/
  15:Generated_Source\PSoC5/toneGen3_PM.c **** 
  16:Generated_Source\PSoC5/toneGen3_PM.c **** #include "toneGen3.h"
  17:Generated_Source\PSoC5/toneGen3_PM.c **** 
  18:Generated_Source\PSoC5/toneGen3_PM.c **** static toneGen3_BACKUP_STRUCT  toneGen3_backup;
  19:Generated_Source\PSoC5/toneGen3_PM.c **** 
  20:Generated_Source\PSoC5/toneGen3_PM.c **** 
  21:Generated_Source\PSoC5/toneGen3_PM.c **** /*******************************************************************************
  22:Generated_Source\PSoC5/toneGen3_PM.c **** * Function Name: toneGen3_Sleep
  23:Generated_Source\PSoC5/toneGen3_PM.c **** ********************************************************************************
  24:Generated_Source\PSoC5/toneGen3_PM.c **** *
  25:Generated_Source\PSoC5/toneGen3_PM.c **** * Summary:
  26:Generated_Source\PSoC5/toneGen3_PM.c **** *  Stops the component and saves its configuration. Should be called 
  27:Generated_Source\PSoC5/toneGen3_PM.c **** *  just prior to entering sleep.
  28:Generated_Source\PSoC5/toneGen3_PM.c **** *  
  29:Generated_Source\PSoC5/toneGen3_PM.c **** * Parameters:  
  30:Generated_Source\PSoC5/toneGen3_PM.c **** *  None
ARM GAS  C:\Users\GEBRUI~1\AppData\Local\Temp\cctSxo9Y.s 			page 2


  31:Generated_Source\PSoC5/toneGen3_PM.c **** *
  32:Generated_Source\PSoC5/toneGen3_PM.c **** * Return: 
  33:Generated_Source\PSoC5/toneGen3_PM.c **** *  None
  34:Generated_Source\PSoC5/toneGen3_PM.c **** *
  35:Generated_Source\PSoC5/toneGen3_PM.c **** * Global variables:
  36:Generated_Source\PSoC5/toneGen3_PM.c **** *  toneGen3_backup:  The structure field 'enableState' is modified 
  37:Generated_Source\PSoC5/toneGen3_PM.c **** *  depending on the enable state of the block before entering to sleep mode.
  38:Generated_Source\PSoC5/toneGen3_PM.c **** *
  39:Generated_Source\PSoC5/toneGen3_PM.c **** * Reentrant:
  40:Generated_Source\PSoC5/toneGen3_PM.c **** *  No
  41:Generated_Source\PSoC5/toneGen3_PM.c **** *
  42:Generated_Source\PSoC5/toneGen3_PM.c **** *******************************************************************************/
  43:Generated_Source\PSoC5/toneGen3_PM.c **** void toneGen3_Sleep(void) 
  44:Generated_Source\PSoC5/toneGen3_PM.c **** {
  28              		.loc 1 44 0
  29              		.cfi_startproc
  30              		@ args = 0, pretend = 0, frame = 0
  31              		@ frame_needed = 0, uses_anonymous_args = 0
  32 0000 08B5     		push	{r3, lr}
  33              		.cfi_def_cfa_offset 8
  34              		.cfi_offset 3, -8
  35              		.cfi_offset 14, -4
  45:Generated_Source\PSoC5/toneGen3_PM.c **** 	/* Save DAC8's enable state */
  46:Generated_Source\PSoC5/toneGen3_PM.c **** 
  47:Generated_Source\PSoC5/toneGen3_PM.c **** 	toneGen3_backup.enableState = (toneGen3_VDAC8_ACT_PWR_EN == 
  48:Generated_Source\PSoC5/toneGen3_PM.c **** 		(toneGen3_VDAC8_PWRMGR_REG & toneGen3_VDAC8_ACT_PWR_EN)) ? 1u : 0u ;
  36              		.loc 1 48 0
  37 0002 074B     		ldr	r3, .L4
  38 0004 1B78     		ldrb	r3, [r3]	@ zero_extendqisi2
  39 0006 03F00803 		and	r3, r3, #8
  47:Generated_Source\PSoC5/toneGen3_PM.c **** 		(toneGen3_VDAC8_PWRMGR_REG & toneGen3_VDAC8_ACT_PWR_EN)) ? 1u : 0u ;
  40              		.loc 1 47 0
  41 000a 03F0FF02 		and	r2, r3, #255
  42 000e 03B1     		cbz	r3, .L2
  43 0010 0122     		movs	r2, #1
  44              	.L2:
  47:Generated_Source\PSoC5/toneGen3_PM.c **** 		(toneGen3_VDAC8_PWRMGR_REG & toneGen3_VDAC8_ACT_PWR_EN)) ? 1u : 0u ;
  45              		.loc 1 47 0 is_stmt 0 discriminator 4
  46 0012 044B     		ldr	r3, .L4+4
  47 0014 1A70     		strb	r2, [r3]
  49:Generated_Source\PSoC5/toneGen3_PM.c **** 	
  50:Generated_Source\PSoC5/toneGen3_PM.c **** 	toneGen3_Stop();
  48              		.loc 1 50 0 is_stmt 1 discriminator 4
  49 0016 FFF7FEFF 		bl	toneGen3_Stop
  50              	.LVL0:
  51:Generated_Source\PSoC5/toneGen3_PM.c **** 	toneGen3_SaveConfig();
  51              		.loc 1 51 0 discriminator 4
  52 001a FFF7FEFF 		bl	toneGen3_VDAC8_SaveConfig
  53              	.LVL1:
  54 001e 08BD     		pop	{r3, pc}
  55              	.L5:
  56              		.align	2
  57              	.L4:
  58 0020 A8430040 		.word	1073759144
  59 0024 00000000 		.word	.LANCHOR0
  60              		.cfi_endproc
  61              	.LFE0:
ARM GAS  C:\Users\GEBRUI~1\AppData\Local\Temp\cctSxo9Y.s 			page 3


  62              		.size	toneGen3_Sleep, .-toneGen3_Sleep
  63              		.section	.text.toneGen3_Wakeup,"ax",%progbits
  64              		.align	2
  65              		.global	toneGen3_Wakeup
  66              		.thumb
  67              		.thumb_func
  68              		.type	toneGen3_Wakeup, %function
  69              	toneGen3_Wakeup:
  70              	.LFB1:
  52:Generated_Source\PSoC5/toneGen3_PM.c **** }
  53:Generated_Source\PSoC5/toneGen3_PM.c **** 
  54:Generated_Source\PSoC5/toneGen3_PM.c **** 
  55:Generated_Source\PSoC5/toneGen3_PM.c **** /*******************************************************************************
  56:Generated_Source\PSoC5/toneGen3_PM.c **** * Function Name: toneGen3_Wakeup
  57:Generated_Source\PSoC5/toneGen3_PM.c **** ********************************************************************************
  58:Generated_Source\PSoC5/toneGen3_PM.c **** *
  59:Generated_Source\PSoC5/toneGen3_PM.c **** * Summary:
  60:Generated_Source\PSoC5/toneGen3_PM.c **** *  Restores the component configuration. Should be called
  61:Generated_Source\PSoC5/toneGen3_PM.c **** *  just after awaking from sleep.
  62:Generated_Source\PSoC5/toneGen3_PM.c **** *  
  63:Generated_Source\PSoC5/toneGen3_PM.c **** * Parameters:  
  64:Generated_Source\PSoC5/toneGen3_PM.c **** *  None
  65:Generated_Source\PSoC5/toneGen3_PM.c **** *
  66:Generated_Source\PSoC5/toneGen3_PM.c **** * Return: 
  67:Generated_Source\PSoC5/toneGen3_PM.c **** *  void
  68:Generated_Source\PSoC5/toneGen3_PM.c **** *
  69:Generated_Source\PSoC5/toneGen3_PM.c **** * Global variables:
  70:Generated_Source\PSoC5/toneGen3_PM.c **** *  toneGen3_backup:  The structure field 'enableState' is used to 
  71:Generated_Source\PSoC5/toneGen3_PM.c **** *  restore the enable state of block after wakeup from sleep mode.
  72:Generated_Source\PSoC5/toneGen3_PM.c **** *
  73:Generated_Source\PSoC5/toneGen3_PM.c **** * Reentrant:
  74:Generated_Source\PSoC5/toneGen3_PM.c **** *  No
  75:Generated_Source\PSoC5/toneGen3_PM.c **** *
  76:Generated_Source\PSoC5/toneGen3_PM.c **** *******************************************************************************/
  77:Generated_Source\PSoC5/toneGen3_PM.c **** void toneGen3_Wakeup(void) 
  78:Generated_Source\PSoC5/toneGen3_PM.c **** {
  71              		.loc 1 78 0
  72              		.cfi_startproc
  73              		@ args = 0, pretend = 0, frame = 0
  74              		@ frame_needed = 0, uses_anonymous_args = 0
  75 0000 08B5     		push	{r3, lr}
  76              		.cfi_def_cfa_offset 8
  77              		.cfi_offset 3, -8
  78              		.cfi_offset 14, -4
  79:Generated_Source\PSoC5/toneGen3_PM.c **** 	toneGen3_RestoreConfig();
  79              		.loc 1 79 0
  80 0002 FFF7FEFF 		bl	toneGen3_VDAC8_RestoreConfig
  81              	.LVL2:
  80:Generated_Source\PSoC5/toneGen3_PM.c **** 
  81:Generated_Source\PSoC5/toneGen3_PM.c **** 	if(toneGen3_backup.enableState == 1u)
  82              		.loc 1 81 0
  83 0006 034B     		ldr	r3, .L9
  84 0008 1B78     		ldrb	r3, [r3]	@ zero_extendqisi2
  85 000a 012B     		cmp	r3, #1
  86 000c 01D1     		bne	.L6
  82:Generated_Source\PSoC5/toneGen3_PM.c **** 	{
  83:Generated_Source\PSoC5/toneGen3_PM.c **** 		toneGen3_Enable();
ARM GAS  C:\Users\GEBRUI~1\AppData\Local\Temp\cctSxo9Y.s 			page 4


  87              		.loc 1 83 0
  88 000e FFF7FEFF 		bl	toneGen3_Enable
  89              	.LVL3:
  90              	.L6:
  91 0012 08BD     		pop	{r3, pc}
  92              	.L10:
  93              		.align	2
  94              	.L9:
  95 0014 00000000 		.word	.LANCHOR0
  96              		.cfi_endproc
  97              	.LFE1:
  98              		.size	toneGen3_Wakeup, .-toneGen3_Wakeup
  99              		.bss
 100              		.align	2
 101              		.set	.LANCHOR0,. + 0
 102              		.type	toneGen3_backup, %object
 103              		.size	toneGen3_backup, 1
 104              	toneGen3_backup:
 105 0000 00       		.space	1
 106              		.text
 107              	.Letext0:
 108              		.file 2 "Generated_Source\\PSoC5\\cytypes.h"
 109              		.file 3 "Generated_Source\\PSoC5\\toneGen3.h"
 110              		.file 4 "Generated_Source\\PSoC5/toneGen3_VDAC8.h"
