ARM GAS  C:\Users\admin\AppData\Local\Temp\ccgfjNHH.s 			page 1


   1              		.syntax unified
   2              		.cpu cortex-m3
   3              		.fpu softvfp
   4              		.eabi_attribute 20, 1
   5              		.eabi_attribute 21, 1
   6              		.eabi_attribute 23, 3
   7              		.eabi_attribute 24, 1
   8              		.eabi_attribute 25, 1
   9              		.eabi_attribute 26, 1
  10              		.eabi_attribute 30, 6
  11              		.eabi_attribute 34, 1
  12              		.eabi_attribute 18, 4
  13              		.thumb
  14              		.syntax unified
  15              		.file	"LCD_LCDPort.c"
  16              		.text
  17              	.Ltext0:
  18              		.cfi_sections	.debug_frame
  19              		.section	.text.LCD_LCDPort_Write,"ax",%progbits
  20              		.align	2
  21              		.global	LCD_LCDPort_Write
  22              		.thumb
  23              		.thumb_func
  24              		.type	LCD_LCDPort_Write, %function
  25              	LCD_LCDPort_Write:
  26              	.LFB0:
  27              		.file 1 "Generated_Source\\PSoC5\\LCD_LCDPort.c"
   1:Generated_Source\PSoC5/LCD_LCDPort.c **** /*******************************************************************************
   2:Generated_Source\PSoC5/LCD_LCDPort.c **** * File Name: LCD_LCDPort.c  
   3:Generated_Source\PSoC5/LCD_LCDPort.c **** * Version 2.20
   4:Generated_Source\PSoC5/LCD_LCDPort.c **** *
   5:Generated_Source\PSoC5/LCD_LCDPort.c **** * Description:
   6:Generated_Source\PSoC5/LCD_LCDPort.c **** *  This file contains API to enable firmware control of a Pins component.
   7:Generated_Source\PSoC5/LCD_LCDPort.c **** *
   8:Generated_Source\PSoC5/LCD_LCDPort.c **** * Note:
   9:Generated_Source\PSoC5/LCD_LCDPort.c **** *
  10:Generated_Source\PSoC5/LCD_LCDPort.c **** ********************************************************************************
  11:Generated_Source\PSoC5/LCD_LCDPort.c **** * Copyright 2008-2015, Cypress Semiconductor Corporation.  All rights reserved.
  12:Generated_Source\PSoC5/LCD_LCDPort.c **** * You may use this file only in accordance with the license, terms, conditions, 
  13:Generated_Source\PSoC5/LCD_LCDPort.c **** * disclaimers, and limitations in the end user license agreement accompanying 
  14:Generated_Source\PSoC5/LCD_LCDPort.c **** * the software package with which this file was provided.
  15:Generated_Source\PSoC5/LCD_LCDPort.c **** *******************************************************************************/
  16:Generated_Source\PSoC5/LCD_LCDPort.c **** 
  17:Generated_Source\PSoC5/LCD_LCDPort.c **** #include "cytypes.h"
  18:Generated_Source\PSoC5/LCD_LCDPort.c **** #include "LCD_LCDPort.h"
  19:Generated_Source\PSoC5/LCD_LCDPort.c **** 
  20:Generated_Source\PSoC5/LCD_LCDPort.c **** /* APIs are not generated for P15[7:6] on PSoC 5 */
  21:Generated_Source\PSoC5/LCD_LCDPort.c **** #if !(CY_PSOC5A &&\
  22:Generated_Source\PSoC5/LCD_LCDPort.c **** 	 LCD_LCDPort__PORT == 15 && ((LCD_LCDPort__MASK & 0xC0) != 0))
  23:Generated_Source\PSoC5/LCD_LCDPort.c **** 
  24:Generated_Source\PSoC5/LCD_LCDPort.c **** 
  25:Generated_Source\PSoC5/LCD_LCDPort.c **** /*******************************************************************************
  26:Generated_Source\PSoC5/LCD_LCDPort.c **** * Function Name: LCD_LCDPort_Write
  27:Generated_Source\PSoC5/LCD_LCDPort.c **** ****************************************************************************//**
  28:Generated_Source\PSoC5/LCD_LCDPort.c **** *
  29:Generated_Source\PSoC5/LCD_LCDPort.c **** * \brief Writes the value to the physical port (data output register), masking
  30:Generated_Source\PSoC5/LCD_LCDPort.c **** *  and shifting the bits appropriately. 
ARM GAS  C:\Users\admin\AppData\Local\Temp\ccgfjNHH.s 			page 2


  31:Generated_Source\PSoC5/LCD_LCDPort.c **** *
  32:Generated_Source\PSoC5/LCD_LCDPort.c **** * The data output register controls the signal applied to the physical pin in 
  33:Generated_Source\PSoC5/LCD_LCDPort.c **** * conjunction with the drive mode parameter. This function avoids changing 
  34:Generated_Source\PSoC5/LCD_LCDPort.c **** * other bits in the port by using the appropriate method (read-modify-write or
  35:Generated_Source\PSoC5/LCD_LCDPort.c **** * bit banding).
  36:Generated_Source\PSoC5/LCD_LCDPort.c **** *
  37:Generated_Source\PSoC5/LCD_LCDPort.c **** * <b>Note</b> This function should not be used on a hardware digital output pin 
  38:Generated_Source\PSoC5/LCD_LCDPort.c **** * as it is driven by the hardware signal attached to it.
  39:Generated_Source\PSoC5/LCD_LCDPort.c **** *
  40:Generated_Source\PSoC5/LCD_LCDPort.c **** * \param value
  41:Generated_Source\PSoC5/LCD_LCDPort.c **** *  Value to write to the component instance.
  42:Generated_Source\PSoC5/LCD_LCDPort.c **** *
  43:Generated_Source\PSoC5/LCD_LCDPort.c **** * \return 
  44:Generated_Source\PSoC5/LCD_LCDPort.c **** *  None 
  45:Generated_Source\PSoC5/LCD_LCDPort.c **** *
  46:Generated_Source\PSoC5/LCD_LCDPort.c **** * \sideeffect
  47:Generated_Source\PSoC5/LCD_LCDPort.c **** *  If you use read-modify-write operations that are not atomic; the Interrupt 
  48:Generated_Source\PSoC5/LCD_LCDPort.c **** *  Service Routines (ISR) can cause corruption of this function. An ISR that 
  49:Generated_Source\PSoC5/LCD_LCDPort.c **** *  interrupts this function and performs writes to the Pins component data 
  50:Generated_Source\PSoC5/LCD_LCDPort.c **** *  register can cause corrupted port data. To avoid this issue, you should 
  51:Generated_Source\PSoC5/LCD_LCDPort.c **** *  either use the Per-Pin APIs (primary method) or disable interrupts around 
  52:Generated_Source\PSoC5/LCD_LCDPort.c **** *  this function.
  53:Generated_Source\PSoC5/LCD_LCDPort.c **** *
  54:Generated_Source\PSoC5/LCD_LCDPort.c **** * \funcusage
  55:Generated_Source\PSoC5/LCD_LCDPort.c **** *  \snippet LCD_LCDPort_SUT.c usage_LCD_LCDPort_Write
  56:Generated_Source\PSoC5/LCD_LCDPort.c **** *******************************************************************************/
  57:Generated_Source\PSoC5/LCD_LCDPort.c **** void LCD_LCDPort_Write(uint8 value)
  58:Generated_Source\PSoC5/LCD_LCDPort.c **** {
  28              		.loc 1 58 0
  29              		.cfi_startproc
  30              		@ args = 0, pretend = 0, frame = 16
  31              		@ frame_needed = 1, uses_anonymous_args = 0
  32              		@ link register save eliminated.
  33 0000 80B4     		push	{r7}
  34              		.cfi_def_cfa_offset 4
  35              		.cfi_offset 7, -4
  36 0002 85B0     		sub	sp, sp, #20
  37              		.cfi_def_cfa_offset 24
  38 0004 00AF     		add	r7, sp, #0
  39              		.cfi_def_cfa_register 7
  40 0006 0346     		mov	r3, r0
  41 0008 FB71     		strb	r3, [r7, #7]
  59:Generated_Source\PSoC5/LCD_LCDPort.c ****     uint8 staticBits = (LCD_LCDPort_DR & (uint8)(~LCD_LCDPort_MASK));
  42              		.loc 1 59 0
  43 000a 0A4B     		ldr	r3, .L2
  44 000c 1B78     		ldrb	r3, [r3]
  45 000e DBB2     		uxtb	r3, r3
  46 0010 23F07F03 		bic	r3, r3, #127
  47 0014 FB73     		strb	r3, [r7, #15]
  60:Generated_Source\PSoC5/LCD_LCDPort.c ****     LCD_LCDPort_DR = staticBits | ((uint8)(value << LCD_LCDPort_SHIFT) & LCD_LCDPort_MASK);
  48              		.loc 1 60 0
  49 0016 0749     		ldr	r1, .L2
  50 0018 FB79     		ldrb	r3, [r7, #7]
  51 001a 03F07F03 		and	r3, r3, #127
  52 001e DAB2     		uxtb	r2, r3
  53 0020 FB7B     		ldrb	r3, [r7, #15]
  54 0022 1343     		orrs	r3, r3, r2
ARM GAS  C:\Users\admin\AppData\Local\Temp\ccgfjNHH.s 			page 3


  55 0024 DBB2     		uxtb	r3, r3
  56 0026 0B70     		strb	r3, [r1]
  61:Generated_Source\PSoC5/LCD_LCDPort.c **** }
  57              		.loc 1 61 0
  58 0028 00BF     		nop
  59 002a 1437     		adds	r7, r7, #20
  60              		.cfi_def_cfa_offset 4
  61 002c BD46     		mov	sp, r7
  62              		.cfi_def_cfa_register 13
  63              		@ sp needed
  64 002e 80BC     		pop	{r7}
  65              		.cfi_restore 7
  66              		.cfi_def_cfa_offset 0
  67 0030 7047     		bx	lr
  68              	.L3:
  69 0032 00BF     		.align	2
  70              	.L2:
  71 0034 20510040 		.word	1073762592
  72              		.cfi_endproc
  73              	.LFE0:
  74              		.size	LCD_LCDPort_Write, .-LCD_LCDPort_Write
  75              		.section	.text.LCD_LCDPort_SetDriveMode,"ax",%progbits
  76              		.align	2
  77              		.global	LCD_LCDPort_SetDriveMode
  78              		.thumb
  79              		.thumb_func
  80              		.type	LCD_LCDPort_SetDriveMode, %function
  81              	LCD_LCDPort_SetDriveMode:
  82              	.LFB1:
  62:Generated_Source\PSoC5/LCD_LCDPort.c **** 
  63:Generated_Source\PSoC5/LCD_LCDPort.c **** 
  64:Generated_Source\PSoC5/LCD_LCDPort.c **** /*******************************************************************************
  65:Generated_Source\PSoC5/LCD_LCDPort.c **** * Function Name: LCD_LCDPort_SetDriveMode
  66:Generated_Source\PSoC5/LCD_LCDPort.c **** ****************************************************************************//**
  67:Generated_Source\PSoC5/LCD_LCDPort.c **** *
  68:Generated_Source\PSoC5/LCD_LCDPort.c **** * \brief Sets the drive mode for each of the Pins component's pins.
  69:Generated_Source\PSoC5/LCD_LCDPort.c **** * 
  70:Generated_Source\PSoC5/LCD_LCDPort.c **** * <b>Note</b> This affects all pins in the Pins component instance. Use the
  71:Generated_Source\PSoC5/LCD_LCDPort.c **** * Per-Pin APIs if you wish to control individual pin's drive modes.
  72:Generated_Source\PSoC5/LCD_LCDPort.c **** *
  73:Generated_Source\PSoC5/LCD_LCDPort.c **** * \param mode
  74:Generated_Source\PSoC5/LCD_LCDPort.c **** *  Mode for the selected signals. Valid options are documented in 
  75:Generated_Source\PSoC5/LCD_LCDPort.c **** *  \ref driveMode.
  76:Generated_Source\PSoC5/LCD_LCDPort.c **** *
  77:Generated_Source\PSoC5/LCD_LCDPort.c **** * \return
  78:Generated_Source\PSoC5/LCD_LCDPort.c **** *  None
  79:Generated_Source\PSoC5/LCD_LCDPort.c **** *
  80:Generated_Source\PSoC5/LCD_LCDPort.c **** * \sideeffect
  81:Generated_Source\PSoC5/LCD_LCDPort.c **** *  If you use read-modify-write operations that are not atomic, the ISR can
  82:Generated_Source\PSoC5/LCD_LCDPort.c **** *  cause corruption of this function. An ISR that interrupts this function 
  83:Generated_Source\PSoC5/LCD_LCDPort.c **** *  and performs writes to the Pins component Drive Mode registers can cause 
  84:Generated_Source\PSoC5/LCD_LCDPort.c **** *  corrupted port data. To avoid this issue, you should either use the Per-Pin
  85:Generated_Source\PSoC5/LCD_LCDPort.c **** *  APIs (primary method) or disable interrupts around this function.
  86:Generated_Source\PSoC5/LCD_LCDPort.c **** *
  87:Generated_Source\PSoC5/LCD_LCDPort.c **** * \funcusage
  88:Generated_Source\PSoC5/LCD_LCDPort.c **** *  \snippet LCD_LCDPort_SUT.c usage_LCD_LCDPort_SetDriveMode
  89:Generated_Source\PSoC5/LCD_LCDPort.c **** *******************************************************************************/
ARM GAS  C:\Users\admin\AppData\Local\Temp\ccgfjNHH.s 			page 4


  90:Generated_Source\PSoC5/LCD_LCDPort.c **** void LCD_LCDPort_SetDriveMode(uint8 mode)
  91:Generated_Source\PSoC5/LCD_LCDPort.c **** {
  83              		.loc 1 91 0
  84              		.cfi_startproc
  85              		@ args = 0, pretend = 0, frame = 8
  86              		@ frame_needed = 1, uses_anonymous_args = 0
  87              		@ link register save eliminated.
  88 0000 80B4     		push	{r7}
  89              		.cfi_def_cfa_offset 4
  90              		.cfi_offset 7, -4
  91 0002 83B0     		sub	sp, sp, #12
  92              		.cfi_def_cfa_offset 16
  93 0004 00AF     		add	r7, sp, #0
  94              		.cfi_def_cfa_register 7
  95 0006 0346     		mov	r3, r0
  96 0008 FB71     		strb	r3, [r7, #7]
  92:Generated_Source\PSoC5/LCD_LCDPort.c **** 	CyPins_SetPinDriveMode(LCD_LCDPort_0, mode);
  97              		.loc 1 92 0
  98 000a 3E49     		ldr	r1, .L5
  99 000c 3D4B     		ldr	r3, .L5
 100 000e 1B78     		ldrb	r3, [r3]
 101 0010 DBB2     		uxtb	r3, r3
 102 0012 5BB2     		sxtb	r3, r3
 103 0014 23F00E03 		bic	r3, r3, #14
 104 0018 5AB2     		sxtb	r2, r3
 105 001a 97F90730 		ldrsb	r3, [r7, #7]
 106 001e 03F00E03 		and	r3, r3, #14
 107 0022 5BB2     		sxtb	r3, r3
 108 0024 1343     		orrs	r3, r3, r2
 109 0026 5BB2     		sxtb	r3, r3
 110 0028 DBB2     		uxtb	r3, r3
 111 002a 0B70     		strb	r3, [r1]
  93:Generated_Source\PSoC5/LCD_LCDPort.c **** 	CyPins_SetPinDriveMode(LCD_LCDPort_1, mode);
 112              		.loc 1 93 0
 113 002c 3649     		ldr	r1, .L5+4
 114 002e 364B     		ldr	r3, .L5+4
 115 0030 1B78     		ldrb	r3, [r3]
 116 0032 DBB2     		uxtb	r3, r3
 117 0034 5BB2     		sxtb	r3, r3
 118 0036 23F00E03 		bic	r3, r3, #14
 119 003a 5AB2     		sxtb	r2, r3
 120 003c 97F90730 		ldrsb	r3, [r7, #7]
 121 0040 03F00E03 		and	r3, r3, #14
 122 0044 5BB2     		sxtb	r3, r3
 123 0046 1343     		orrs	r3, r3, r2
 124 0048 5BB2     		sxtb	r3, r3
 125 004a DBB2     		uxtb	r3, r3
 126 004c 0B70     		strb	r3, [r1]
  94:Generated_Source\PSoC5/LCD_LCDPort.c **** 	CyPins_SetPinDriveMode(LCD_LCDPort_2, mode);
 127              		.loc 1 94 0
 128 004e 2F49     		ldr	r1, .L5+8
 129 0050 2E4B     		ldr	r3, .L5+8
 130 0052 1B78     		ldrb	r3, [r3]
 131 0054 DBB2     		uxtb	r3, r3
 132 0056 5BB2     		sxtb	r3, r3
 133 0058 23F00E03 		bic	r3, r3, #14
 134 005c 5AB2     		sxtb	r2, r3
ARM GAS  C:\Users\admin\AppData\Local\Temp\ccgfjNHH.s 			page 5


 135 005e 97F90730 		ldrsb	r3, [r7, #7]
 136 0062 03F00E03 		and	r3, r3, #14
 137 0066 5BB2     		sxtb	r3, r3
 138 0068 1343     		orrs	r3, r3, r2
 139 006a 5BB2     		sxtb	r3, r3
 140 006c DBB2     		uxtb	r3, r3
 141 006e 0B70     		strb	r3, [r1]
  95:Generated_Source\PSoC5/LCD_LCDPort.c **** 	CyPins_SetPinDriveMode(LCD_LCDPort_3, mode);
 142              		.loc 1 95 0
 143 0070 2749     		ldr	r1, .L5+12
 144 0072 274B     		ldr	r3, .L5+12
 145 0074 1B78     		ldrb	r3, [r3]
 146 0076 DBB2     		uxtb	r3, r3
 147 0078 5BB2     		sxtb	r3, r3
 148 007a 23F00E03 		bic	r3, r3, #14
 149 007e 5AB2     		sxtb	r2, r3
 150 0080 97F90730 		ldrsb	r3, [r7, #7]
 151 0084 03F00E03 		and	r3, r3, #14
 152 0088 5BB2     		sxtb	r3, r3
 153 008a 1343     		orrs	r3, r3, r2
 154 008c 5BB2     		sxtb	r3, r3
 155 008e DBB2     		uxtb	r3, r3
 156 0090 0B70     		strb	r3, [r1]
  96:Generated_Source\PSoC5/LCD_LCDPort.c **** 	CyPins_SetPinDriveMode(LCD_LCDPort_4, mode);
 157              		.loc 1 96 0
 158 0092 2049     		ldr	r1, .L5+16
 159 0094 1F4B     		ldr	r3, .L5+16
 160 0096 1B78     		ldrb	r3, [r3]
 161 0098 DBB2     		uxtb	r3, r3
 162 009a 5BB2     		sxtb	r3, r3
 163 009c 23F00E03 		bic	r3, r3, #14
 164 00a0 5AB2     		sxtb	r2, r3
 165 00a2 97F90730 		ldrsb	r3, [r7, #7]
 166 00a6 03F00E03 		and	r3, r3, #14
 167 00aa 5BB2     		sxtb	r3, r3
 168 00ac 1343     		orrs	r3, r3, r2
 169 00ae 5BB2     		sxtb	r3, r3
 170 00b0 DBB2     		uxtb	r3, r3
 171 00b2 0B70     		strb	r3, [r1]
  97:Generated_Source\PSoC5/LCD_LCDPort.c **** 	CyPins_SetPinDriveMode(LCD_LCDPort_5, mode);
 172              		.loc 1 97 0
 173 00b4 1849     		ldr	r1, .L5+20
 174 00b6 184B     		ldr	r3, .L5+20
 175 00b8 1B78     		ldrb	r3, [r3]
 176 00ba DBB2     		uxtb	r3, r3
 177 00bc 5BB2     		sxtb	r3, r3
 178 00be 23F00E03 		bic	r3, r3, #14
 179 00c2 5AB2     		sxtb	r2, r3
 180 00c4 97F90730 		ldrsb	r3, [r7, #7]
 181 00c8 03F00E03 		and	r3, r3, #14
 182 00cc 5BB2     		sxtb	r3, r3
 183 00ce 1343     		orrs	r3, r3, r2
 184 00d0 5BB2     		sxtb	r3, r3
 185 00d2 DBB2     		uxtb	r3, r3
 186 00d4 0B70     		strb	r3, [r1]
  98:Generated_Source\PSoC5/LCD_LCDPort.c **** 	CyPins_SetPinDriveMode(LCD_LCDPort_6, mode);
 187              		.loc 1 98 0
ARM GAS  C:\Users\admin\AppData\Local\Temp\ccgfjNHH.s 			page 6


 188 00d6 1149     		ldr	r1, .L5+24
 189 00d8 104B     		ldr	r3, .L5+24
 190 00da 1B78     		ldrb	r3, [r3]
 191 00dc DBB2     		uxtb	r3, r3
 192 00de 5BB2     		sxtb	r3, r3
 193 00e0 23F00E03 		bic	r3, r3, #14
 194 00e4 5AB2     		sxtb	r2, r3
 195 00e6 97F90730 		ldrsb	r3, [r7, #7]
 196 00ea 03F00E03 		and	r3, r3, #14
 197 00ee 5BB2     		sxtb	r3, r3
 198 00f0 1343     		orrs	r3, r3, r2
 199 00f2 5BB2     		sxtb	r3, r3
 200 00f4 DBB2     		uxtb	r3, r3
 201 00f6 0B70     		strb	r3, [r1]
  99:Generated_Source\PSoC5/LCD_LCDPort.c **** }
 202              		.loc 1 99 0
 203 00f8 00BF     		nop
 204 00fa 0C37     		adds	r7, r7, #12
 205              		.cfi_def_cfa_offset 4
 206 00fc BD46     		mov	sp, r7
 207              		.cfi_def_cfa_register 13
 208              		@ sp needed
 209 00fe 80BC     		pop	{r7}
 210              		.cfi_restore 7
 211              		.cfi_def_cfa_offset 0
 212 0100 7047     		bx	lr
 213              	.L6:
 214 0102 00BF     		.align	2
 215              	.L5:
 216 0104 10500040 		.word	1073762320
 217 0108 11500040 		.word	1073762321
 218 010c 12500040 		.word	1073762322
 219 0110 13500040 		.word	1073762323
 220 0114 14500040 		.word	1073762324
 221 0118 15500040 		.word	1073762325
 222 011c 16500040 		.word	1073762326
 223              		.cfi_endproc
 224              	.LFE1:
 225              		.size	LCD_LCDPort_SetDriveMode, .-LCD_LCDPort_SetDriveMode
 226              		.section	.text.LCD_LCDPort_Read,"ax",%progbits
 227              		.align	2
 228              		.global	LCD_LCDPort_Read
 229              		.thumb
 230              		.thumb_func
 231              		.type	LCD_LCDPort_Read, %function
 232              	LCD_LCDPort_Read:
 233              	.LFB2:
 100:Generated_Source\PSoC5/LCD_LCDPort.c **** 
 101:Generated_Source\PSoC5/LCD_LCDPort.c **** 
 102:Generated_Source\PSoC5/LCD_LCDPort.c **** /*******************************************************************************
 103:Generated_Source\PSoC5/LCD_LCDPort.c **** * Function Name: LCD_LCDPort_Read
 104:Generated_Source\PSoC5/LCD_LCDPort.c **** ****************************************************************************//**
 105:Generated_Source\PSoC5/LCD_LCDPort.c **** *
 106:Generated_Source\PSoC5/LCD_LCDPort.c **** * \brief Reads the associated physical port (pin status register) and masks 
 107:Generated_Source\PSoC5/LCD_LCDPort.c **** *  the required bits according to the width and bit position of the component
 108:Generated_Source\PSoC5/LCD_LCDPort.c **** *  instance. 
 109:Generated_Source\PSoC5/LCD_LCDPort.c **** *
ARM GAS  C:\Users\admin\AppData\Local\Temp\ccgfjNHH.s 			page 7


 110:Generated_Source\PSoC5/LCD_LCDPort.c **** * The pin's status register returns the current logic level present on the 
 111:Generated_Source\PSoC5/LCD_LCDPort.c **** * physical pin.
 112:Generated_Source\PSoC5/LCD_LCDPort.c **** *
 113:Generated_Source\PSoC5/LCD_LCDPort.c **** * \return 
 114:Generated_Source\PSoC5/LCD_LCDPort.c **** *  The current value for the pins in the component as a right justified number.
 115:Generated_Source\PSoC5/LCD_LCDPort.c **** *
 116:Generated_Source\PSoC5/LCD_LCDPort.c **** * \funcusage
 117:Generated_Source\PSoC5/LCD_LCDPort.c **** *  \snippet LCD_LCDPort_SUT.c usage_LCD_LCDPort_Read  
 118:Generated_Source\PSoC5/LCD_LCDPort.c **** *******************************************************************************/
 119:Generated_Source\PSoC5/LCD_LCDPort.c **** uint8 LCD_LCDPort_Read(void)
 120:Generated_Source\PSoC5/LCD_LCDPort.c **** {
 234              		.loc 1 120 0
 235              		.cfi_startproc
 236              		@ args = 0, pretend = 0, frame = 0
 237              		@ frame_needed = 1, uses_anonymous_args = 0
 238              		@ link register save eliminated.
 239 0000 80B4     		push	{r7}
 240              		.cfi_def_cfa_offset 4
 241              		.cfi_offset 7, -4
 242 0002 00AF     		add	r7, sp, #0
 243              		.cfi_def_cfa_register 7
 121:Generated_Source\PSoC5/LCD_LCDPort.c ****     return (LCD_LCDPort_PS & LCD_LCDPort_MASK) >> LCD_LCDPort_SHIFT;
 244              		.loc 1 121 0
 245 0004 044B     		ldr	r3, .L9
 246 0006 1B78     		ldrb	r3, [r3]
 247 0008 DBB2     		uxtb	r3, r3
 248 000a 03F07F03 		and	r3, r3, #127
 249 000e DBB2     		uxtb	r3, r3
 122:Generated_Source\PSoC5/LCD_LCDPort.c **** }
 250              		.loc 1 122 0
 251 0010 1846     		mov	r0, r3
 252 0012 BD46     		mov	sp, r7
 253              		.cfi_def_cfa_register 13
 254              		@ sp needed
 255 0014 80BC     		pop	{r7}
 256              		.cfi_restore 7
 257              		.cfi_def_cfa_offset 0
 258 0016 7047     		bx	lr
 259              	.L10:
 260              		.align	2
 261              	.L9:
 262 0018 21510040 		.word	1073762593
 263              		.cfi_endproc
 264              	.LFE2:
 265              		.size	LCD_LCDPort_Read, .-LCD_LCDPort_Read
 266              		.section	.text.LCD_LCDPort_ReadDataReg,"ax",%progbits
 267              		.align	2
 268              		.global	LCD_LCDPort_ReadDataReg
 269              		.thumb
 270              		.thumb_func
 271              		.type	LCD_LCDPort_ReadDataReg, %function
 272              	LCD_LCDPort_ReadDataReg:
 273              	.LFB3:
 123:Generated_Source\PSoC5/LCD_LCDPort.c **** 
 124:Generated_Source\PSoC5/LCD_LCDPort.c **** 
 125:Generated_Source\PSoC5/LCD_LCDPort.c **** /*******************************************************************************
 126:Generated_Source\PSoC5/LCD_LCDPort.c **** * Function Name: LCD_LCDPort_ReadDataReg
ARM GAS  C:\Users\admin\AppData\Local\Temp\ccgfjNHH.s 			page 8


 127:Generated_Source\PSoC5/LCD_LCDPort.c **** ****************************************************************************//**
 128:Generated_Source\PSoC5/LCD_LCDPort.c **** *
 129:Generated_Source\PSoC5/LCD_LCDPort.c **** * \brief Reads the associated physical port's data output register and masks 
 130:Generated_Source\PSoC5/LCD_LCDPort.c **** *  the correct bits according to the width and bit position of the component 
 131:Generated_Source\PSoC5/LCD_LCDPort.c **** *  instance. 
 132:Generated_Source\PSoC5/LCD_LCDPort.c **** *
 133:Generated_Source\PSoC5/LCD_LCDPort.c **** * The data output register controls the signal applied to the physical pin in 
 134:Generated_Source\PSoC5/LCD_LCDPort.c **** * conjunction with the drive mode parameter. This is not the same as the 
 135:Generated_Source\PSoC5/LCD_LCDPort.c **** * preferred LCD_LCDPort_Read() API because the 
 136:Generated_Source\PSoC5/LCD_LCDPort.c **** * LCD_LCDPort_ReadDataReg() reads the data register instead of the status 
 137:Generated_Source\PSoC5/LCD_LCDPort.c **** * register. For output pins this is a useful function to determine the value 
 138:Generated_Source\PSoC5/LCD_LCDPort.c **** * just written to the pin.
 139:Generated_Source\PSoC5/LCD_LCDPort.c **** *
 140:Generated_Source\PSoC5/LCD_LCDPort.c **** * \return 
 141:Generated_Source\PSoC5/LCD_LCDPort.c **** *  The current value of the data register masked and shifted into a right 
 142:Generated_Source\PSoC5/LCD_LCDPort.c **** *  justified number for the component instance.
 143:Generated_Source\PSoC5/LCD_LCDPort.c **** *
 144:Generated_Source\PSoC5/LCD_LCDPort.c **** * \funcusage
 145:Generated_Source\PSoC5/LCD_LCDPort.c **** *  \snippet LCD_LCDPort_SUT.c usage_LCD_LCDPort_ReadDataReg 
 146:Generated_Source\PSoC5/LCD_LCDPort.c **** *******************************************************************************/
 147:Generated_Source\PSoC5/LCD_LCDPort.c **** uint8 LCD_LCDPort_ReadDataReg(void)
 148:Generated_Source\PSoC5/LCD_LCDPort.c **** {
 274              		.loc 1 148 0
 275              		.cfi_startproc
 276              		@ args = 0, pretend = 0, frame = 0
 277              		@ frame_needed = 1, uses_anonymous_args = 0
 278              		@ link register save eliminated.
 279 0000 80B4     		push	{r7}
 280              		.cfi_def_cfa_offset 4
 281              		.cfi_offset 7, -4
 282 0002 00AF     		add	r7, sp, #0
 283              		.cfi_def_cfa_register 7
 149:Generated_Source\PSoC5/LCD_LCDPort.c ****     return (LCD_LCDPort_DR & LCD_LCDPort_MASK) >> LCD_LCDPort_SHIFT;
 284              		.loc 1 149 0
 285 0004 044B     		ldr	r3, .L13
 286 0006 1B78     		ldrb	r3, [r3]
 287 0008 DBB2     		uxtb	r3, r3
 288 000a 03F07F03 		and	r3, r3, #127
 289 000e DBB2     		uxtb	r3, r3
 150:Generated_Source\PSoC5/LCD_LCDPort.c **** }
 290              		.loc 1 150 0
 291 0010 1846     		mov	r0, r3
 292 0012 BD46     		mov	sp, r7
 293              		.cfi_def_cfa_register 13
 294              		@ sp needed
 295 0014 80BC     		pop	{r7}
 296              		.cfi_restore 7
 297              		.cfi_def_cfa_offset 0
 298 0016 7047     		bx	lr
 299              	.L14:
 300              		.align	2
 301              	.L13:
 302 0018 20510040 		.word	1073762592
 303              		.cfi_endproc
 304              	.LFE3:
 305              		.size	LCD_LCDPort_ReadDataReg, .-LCD_LCDPort_ReadDataReg
 306              		.text
ARM GAS  C:\Users\admin\AppData\Local\Temp\ccgfjNHH.s 			page 9


 307              	.Letext0:
 308              		.file 2 "Generated_Source\\PSoC5\\cytypes.h"
