ARM GAS  C:\Users\Sil\AppData\Local\Temp\cc2pr8Ya.s 			page 1


   1              		.syntax unified
   2              		.cpu cortex-m3
   3              		.fpu softvfp
   4              		.eabi_attribute 20, 1
   5              		.eabi_attribute 21, 1
   6              		.eabi_attribute 23, 3
   7              		.eabi_attribute 24, 1
   8              		.eabi_attribute 25, 1
   9              		.eabi_attribute 26, 1
  10              		.eabi_attribute 30, 1
  11              		.eabi_attribute 34, 1
  12              		.eabi_attribute 18, 4
  13              		.thumb
  14              		.syntax unified
  15              		.file	"outputMux.c"
  16              		.text
  17              	.Ltext0:
  18              		.cfi_sections	.debug_frame
  19              		.section	.text.outputMux_Start,"ax",%progbits
  20              		.align	2
  21              		.global	outputMux_Start
  22              		.thumb
  23              		.thumb_func
  24              		.type	outputMux_Start, %function
  25              	outputMux_Start:
  26              	.LFB0:
  27              		.file 1 "Generated_Source\\PSoC5\\outputMux.c"
   1:Generated_Source\PSoC5/outputMux.c **** /*******************************************************************************
   2:Generated_Source\PSoC5/outputMux.c **** * File Name: outputMux.c
   3:Generated_Source\PSoC5/outputMux.c **** * Version 1.80
   4:Generated_Source\PSoC5/outputMux.c **** *
   5:Generated_Source\PSoC5/outputMux.c **** *  Description:
   6:Generated_Source\PSoC5/outputMux.c **** *    This file contains all functions required for the analog multiplexer
   7:Generated_Source\PSoC5/outputMux.c **** *    AMux User Module.
   8:Generated_Source\PSoC5/outputMux.c **** *
   9:Generated_Source\PSoC5/outputMux.c **** *   Note:
  10:Generated_Source\PSoC5/outputMux.c **** *
  11:Generated_Source\PSoC5/outputMux.c **** *******************************************************************************
  12:Generated_Source\PSoC5/outputMux.c **** * Copyright 2008-2010, Cypress Semiconductor Corporation.  All rights reserved.
  13:Generated_Source\PSoC5/outputMux.c **** * You may use this file only in accordance with the license, terms, conditions, 
  14:Generated_Source\PSoC5/outputMux.c **** * disclaimers, and limitations in the end user license agreement accompanying 
  15:Generated_Source\PSoC5/outputMux.c **** * the software package with which this file was provided.
  16:Generated_Source\PSoC5/outputMux.c **** ********************************************************************************/
  17:Generated_Source\PSoC5/outputMux.c **** 
  18:Generated_Source\PSoC5/outputMux.c **** #include "outputMux.h"
  19:Generated_Source\PSoC5/outputMux.c **** 
  20:Generated_Source\PSoC5/outputMux.c **** static uint8 outputMux_lastChannel = outputMux_NULL_CHANNEL;
  21:Generated_Source\PSoC5/outputMux.c **** 
  22:Generated_Source\PSoC5/outputMux.c **** 
  23:Generated_Source\PSoC5/outputMux.c **** /*******************************************************************************
  24:Generated_Source\PSoC5/outputMux.c **** * Function Name: outputMux_Start
  25:Generated_Source\PSoC5/outputMux.c **** ********************************************************************************
  26:Generated_Source\PSoC5/outputMux.c **** * Summary:
  27:Generated_Source\PSoC5/outputMux.c **** *  Disconnect all channels.
  28:Generated_Source\PSoC5/outputMux.c **** *
  29:Generated_Source\PSoC5/outputMux.c **** * Parameters:
  30:Generated_Source\PSoC5/outputMux.c **** *  void
ARM GAS  C:\Users\Sil\AppData\Local\Temp\cc2pr8Ya.s 			page 2


  31:Generated_Source\PSoC5/outputMux.c **** *
  32:Generated_Source\PSoC5/outputMux.c **** * Return:
  33:Generated_Source\PSoC5/outputMux.c **** *  void
  34:Generated_Source\PSoC5/outputMux.c **** *
  35:Generated_Source\PSoC5/outputMux.c **** *******************************************************************************/
  36:Generated_Source\PSoC5/outputMux.c **** void outputMux_Start(void) 
  37:Generated_Source\PSoC5/outputMux.c **** {
  28              		.loc 1 37 0
  29              		.cfi_startproc
  30              		@ args = 0, pretend = 0, frame = 0
  31              		@ frame_needed = 0, uses_anonymous_args = 0
  32 0000 10B5     		push	{r4, lr}
  33              		.cfi_def_cfa_offset 8
  34              		.cfi_offset 4, -8
  35              		.cfi_offset 14, -4
  36              	.LVL0:
  38:Generated_Source\PSoC5/outputMux.c ****     uint8 chan;
  39:Generated_Source\PSoC5/outputMux.c **** 
  40:Generated_Source\PSoC5/outputMux.c ****     for(chan = 0u; chan < outputMux_CHANNELS ; chan++)
  37              		.loc 1 40 0
  38 0002 0024     		movs	r4, #0
  39 0004 04E0     		b	.L2
  40              	.LVL1:
  41              	.L3:
  41:Generated_Source\PSoC5/outputMux.c ****     {
  42:Generated_Source\PSoC5/outputMux.c **** #if (outputMux_MUXTYPE == outputMux_MUX_SINGLE)
  43:Generated_Source\PSoC5/outputMux.c ****         outputMux_Unset(chan);
  42              		.loc 1 43 0 discriminator 3
  43 0006 2046     		mov	r0, r4
  44 0008 FFF7FEFF 		bl	outputMux_Unset
  45              	.LVL2:
  40:Generated_Source\PSoC5/outputMux.c ****     {
  46              		.loc 1 40 0 discriminator 3
  47 000c 0134     		adds	r4, r4, #1
  48              	.LVL3:
  49 000e E4B2     		uxtb	r4, r4
  50              	.LVL4:
  51              	.L2:
  40:Generated_Source\PSoC5/outputMux.c ****     {
  52              		.loc 1 40 0 is_stmt 0 discriminator 1
  53 0010 022C     		cmp	r4, #2
  54 0012 F8D9     		bls	.L3
  44:Generated_Source\PSoC5/outputMux.c **** #else
  45:Generated_Source\PSoC5/outputMux.c ****         outputMux_CYAMUXSIDE_A_Unset(chan);
  46:Generated_Source\PSoC5/outputMux.c ****         outputMux_CYAMUXSIDE_B_Unset(chan);
  47:Generated_Source\PSoC5/outputMux.c **** #endif
  48:Generated_Source\PSoC5/outputMux.c ****     }
  49:Generated_Source\PSoC5/outputMux.c **** 
  50:Generated_Source\PSoC5/outputMux.c ****     outputMux_lastChannel = outputMux_NULL_CHANNEL;
  55              		.loc 1 50 0 is_stmt 1
  56 0014 FF22     		movs	r2, #255
  57 0016 014B     		ldr	r3, .L5
  58 0018 1A70     		strb	r2, [r3]
  59 001a 10BD     		pop	{r4, pc}
  60              	.LVL5:
  61              	.L6:
  62              		.align	2
ARM GAS  C:\Users\Sil\AppData\Local\Temp\cc2pr8Ya.s 			page 3


  63              	.L5:
  64 001c 00000000 		.word	.LANCHOR0
  65              		.cfi_endproc
  66              	.LFE0:
  67              		.size	outputMux_Start, .-outputMux_Start
  68              		.section	.text.outputMux_Select,"ax",%progbits
  69              		.align	2
  70              		.global	outputMux_Select
  71              		.thumb
  72              		.thumb_func
  73              		.type	outputMux_Select, %function
  74              	outputMux_Select:
  75              	.LFB1:
  51:Generated_Source\PSoC5/outputMux.c **** }
  52:Generated_Source\PSoC5/outputMux.c **** 
  53:Generated_Source\PSoC5/outputMux.c **** 
  54:Generated_Source\PSoC5/outputMux.c **** #if (!outputMux_ATMOSTONE)
  55:Generated_Source\PSoC5/outputMux.c **** /*******************************************************************************
  56:Generated_Source\PSoC5/outputMux.c **** * Function Name: outputMux_Select
  57:Generated_Source\PSoC5/outputMux.c **** ********************************************************************************
  58:Generated_Source\PSoC5/outputMux.c **** * Summary:
  59:Generated_Source\PSoC5/outputMux.c **** *  This functions first disconnects all channels then connects the given
  60:Generated_Source\PSoC5/outputMux.c **** *  channel.
  61:Generated_Source\PSoC5/outputMux.c **** *
  62:Generated_Source\PSoC5/outputMux.c **** * Parameters:
  63:Generated_Source\PSoC5/outputMux.c **** *  channel:  The channel to connect to the common terminal.
  64:Generated_Source\PSoC5/outputMux.c **** *
  65:Generated_Source\PSoC5/outputMux.c **** * Return:
  66:Generated_Source\PSoC5/outputMux.c **** *  void
  67:Generated_Source\PSoC5/outputMux.c **** *
  68:Generated_Source\PSoC5/outputMux.c **** *******************************************************************************/
  69:Generated_Source\PSoC5/outputMux.c **** void outputMux_Select(uint8 channel) 
  70:Generated_Source\PSoC5/outputMux.c **** {
  76              		.loc 1 70 0
  77              		.cfi_startproc
  78              		@ args = 0, pretend = 0, frame = 0
  79              		@ frame_needed = 0, uses_anonymous_args = 0
  80              	.LVL6:
  81 0000 10B5     		push	{r4, lr}
  82              		.cfi_def_cfa_offset 8
  83              		.cfi_offset 4, -8
  84              		.cfi_offset 14, -4
  85 0002 0446     		mov	r4, r0
  71:Generated_Source\PSoC5/outputMux.c ****     outputMux_DisconnectAll();        /* Disconnect all previous connections */
  86              		.loc 1 71 0
  87 0004 FFF7FEFF 		bl	outputMux_Start
  88              	.LVL7:
  72:Generated_Source\PSoC5/outputMux.c ****     outputMux_Connect(channel);       /* Make the given selection */
  89              		.loc 1 72 0
  90 0008 2046     		mov	r0, r4
  91 000a FFF7FEFF 		bl	outputMux_Set
  92              	.LVL8:
  73:Generated_Source\PSoC5/outputMux.c ****     outputMux_lastChannel = channel;  /* Update last channel */
  93              		.loc 1 73 0
  94 000e 014B     		ldr	r3, .L9
  95 0010 1C70     		strb	r4, [r3]
  96 0012 10BD     		pop	{r4, pc}
ARM GAS  C:\Users\Sil\AppData\Local\Temp\cc2pr8Ya.s 			page 4


  97              	.L10:
  98              		.align	2
  99              	.L9:
 100 0014 00000000 		.word	.LANCHOR0
 101              		.cfi_endproc
 102              	.LFE1:
 103              		.size	outputMux_Select, .-outputMux_Select
 104              		.section	.text.outputMux_FastSelect,"ax",%progbits
 105              		.align	2
 106              		.global	outputMux_FastSelect
 107              		.thumb
 108              		.thumb_func
 109              		.type	outputMux_FastSelect, %function
 110              	outputMux_FastSelect:
 111              	.LFB2:
  74:Generated_Source\PSoC5/outputMux.c **** }
  75:Generated_Source\PSoC5/outputMux.c **** #endif
  76:Generated_Source\PSoC5/outputMux.c **** 
  77:Generated_Source\PSoC5/outputMux.c **** 
  78:Generated_Source\PSoC5/outputMux.c **** /*******************************************************************************
  79:Generated_Source\PSoC5/outputMux.c **** * Function Name: outputMux_FastSelect
  80:Generated_Source\PSoC5/outputMux.c **** ********************************************************************************
  81:Generated_Source\PSoC5/outputMux.c **** * Summary:
  82:Generated_Source\PSoC5/outputMux.c **** *  This function first disconnects the last connection made with FastSelect or
  83:Generated_Source\PSoC5/outputMux.c **** *  Select, then connects the given channel. The FastSelect function is similar
  84:Generated_Source\PSoC5/outputMux.c **** *  to the Select function, except it is faster since it only disconnects the
  85:Generated_Source\PSoC5/outputMux.c **** *  last channel selected rather than all channels.
  86:Generated_Source\PSoC5/outputMux.c **** *
  87:Generated_Source\PSoC5/outputMux.c **** * Parameters:
  88:Generated_Source\PSoC5/outputMux.c **** *  channel:  The channel to connect to the common terminal.
  89:Generated_Source\PSoC5/outputMux.c **** *
  90:Generated_Source\PSoC5/outputMux.c **** * Return:
  91:Generated_Source\PSoC5/outputMux.c **** *  void
  92:Generated_Source\PSoC5/outputMux.c **** *
  93:Generated_Source\PSoC5/outputMux.c **** *******************************************************************************/
  94:Generated_Source\PSoC5/outputMux.c **** void outputMux_FastSelect(uint8 channel) 
  95:Generated_Source\PSoC5/outputMux.c **** {
 112              		.loc 1 95 0
 113              		.cfi_startproc
 114              		@ args = 0, pretend = 0, frame = 0
 115              		@ frame_needed = 0, uses_anonymous_args = 0
 116              	.LVL9:
 117 0000 10B5     		push	{r4, lr}
 118              		.cfi_def_cfa_offset 8
 119              		.cfi_offset 4, -8
 120              		.cfi_offset 14, -4
 121 0002 0446     		mov	r4, r0
  96:Generated_Source\PSoC5/outputMux.c ****     /* Disconnect the last valid channel */
  97:Generated_Source\PSoC5/outputMux.c ****     if( outputMux_lastChannel != outputMux_NULL_CHANNEL)
 122              		.loc 1 97 0
 123 0004 054B     		ldr	r3, .L14
 124 0006 1878     		ldrb	r0, [r3]	@ zero_extendqisi2
 125              	.LVL10:
 126 0008 FF28     		cmp	r0, #255
 127 000a 01D0     		beq	.L12
  98:Generated_Source\PSoC5/outputMux.c ****     {
  99:Generated_Source\PSoC5/outputMux.c ****         outputMux_Disconnect(outputMux_lastChannel);
ARM GAS  C:\Users\Sil\AppData\Local\Temp\cc2pr8Ya.s 			page 5


 128              		.loc 1 99 0
 129 000c FFF7FEFF 		bl	outputMux_Unset
 130              	.LVL11:
 131              	.L12:
 100:Generated_Source\PSoC5/outputMux.c ****     }
 101:Generated_Source\PSoC5/outputMux.c **** 
 102:Generated_Source\PSoC5/outputMux.c ****     /* Make the new channel connection */
 103:Generated_Source\PSoC5/outputMux.c **** #if (outputMux_MUXTYPE == outputMux_MUX_SINGLE)
 104:Generated_Source\PSoC5/outputMux.c ****     outputMux_Set(channel);
 132              		.loc 1 104 0
 133 0010 2046     		mov	r0, r4
 134 0012 FFF7FEFF 		bl	outputMux_Set
 135              	.LVL12:
 105:Generated_Source\PSoC5/outputMux.c **** #else
 106:Generated_Source\PSoC5/outputMux.c ****     outputMux_CYAMUXSIDE_A_Set(channel);
 107:Generated_Source\PSoC5/outputMux.c ****     outputMux_CYAMUXSIDE_B_Set(channel);
 108:Generated_Source\PSoC5/outputMux.c **** #endif
 109:Generated_Source\PSoC5/outputMux.c **** 
 110:Generated_Source\PSoC5/outputMux.c **** 
 111:Generated_Source\PSoC5/outputMux.c ****     outputMux_lastChannel = channel;   /* Update last channel */
 136              		.loc 1 111 0
 137 0016 014B     		ldr	r3, .L14
 138 0018 1C70     		strb	r4, [r3]
 139 001a 10BD     		pop	{r4, pc}
 140              	.L15:
 141              		.align	2
 142              	.L14:
 143 001c 00000000 		.word	.LANCHOR0
 144              		.cfi_endproc
 145              	.LFE2:
 146              		.size	outputMux_FastSelect, .-outputMux_FastSelect
 147              		.data
 148              		.set	.LANCHOR0,. + 0
 149              		.type	outputMux_lastChannel, %object
 150              		.size	outputMux_lastChannel, 1
 151              	outputMux_lastChannel:
 152 0000 FF       		.byte	-1
 153              		.text
 154              	.Letext0:
 155              		.file 2 "Generated_Source\\PSoC5\\cyfitter_cfg.h"
 156              		.file 3 "Generated_Source\\PSoC5\\cytypes.h"
