ARM GAS  C:\Users\admin\AppData\Local\Temp\ccJ2MmDM.s 			page 1


   1              		.syntax unified
   2              		.cpu cortex-m3
   3              		.fpu softvfp
   4              		.eabi_attribute 20, 1
   5              		.eabi_attribute 21, 1
   6              		.eabi_attribute 23, 3
   7              		.eabi_attribute 24, 1
   8              		.eabi_attribute 25, 1
   9              		.eabi_attribute 26, 1
  10              		.eabi_attribute 30, 1
  11              		.eabi_attribute 34, 1
  12              		.eabi_attribute 18, 4
  13              		.thumb
  14              		.syntax unified
  15              		.file	"WaveDAC_2_PM.c"
  16              		.text
  17              	.Ltext0:
  18              		.cfi_sections	.debug_frame
  19              		.section	.text.WaveDAC_2_Sleep,"ax",%progbits
  20              		.align	2
  21              		.global	WaveDAC_2_Sleep
  22              		.thumb
  23              		.thumb_func
  24              		.type	WaveDAC_2_Sleep, %function
  25              	WaveDAC_2_Sleep:
  26              	.LFB0:
  27              		.file 1 "Generated_Source\\PSoC5\\WaveDAC_2_PM.c"
   1:Generated_Source\PSoC5/WaveDAC_2_PM.c **** /*******************************************************************************
   2:Generated_Source\PSoC5/WaveDAC_2_PM.c **** * File Name: WaveDAC_2_PM.c  
   3:Generated_Source\PSoC5/WaveDAC_2_PM.c **** * Version 2.10
   4:Generated_Source\PSoC5/WaveDAC_2_PM.c **** *
   5:Generated_Source\PSoC5/WaveDAC_2_PM.c **** * Description:
   6:Generated_Source\PSoC5/WaveDAC_2_PM.c **** *  This file provides the power manager source code to the API for 
   7:Generated_Source\PSoC5/WaveDAC_2_PM.c **** *  the WaveDAC8 component.
   8:Generated_Source\PSoC5/WaveDAC_2_PM.c **** *
   9:Generated_Source\PSoC5/WaveDAC_2_PM.c **** ********************************************************************************
  10:Generated_Source\PSoC5/WaveDAC_2_PM.c **** * Copyright 2013, Cypress Semiconductor Corporation.  All rights reserved.
  11:Generated_Source\PSoC5/WaveDAC_2_PM.c **** * You may use this file only in accordance with the license, terms, conditions, 
  12:Generated_Source\PSoC5/WaveDAC_2_PM.c **** * disclaimers, and limitations in the end user license agreement accompanying 
  13:Generated_Source\PSoC5/WaveDAC_2_PM.c **** * the software package with which this file was provided.
  14:Generated_Source\PSoC5/WaveDAC_2_PM.c **** *******************************************************************************/
  15:Generated_Source\PSoC5/WaveDAC_2_PM.c **** 
  16:Generated_Source\PSoC5/WaveDAC_2_PM.c **** #include "WaveDAC_2.h"
  17:Generated_Source\PSoC5/WaveDAC_2_PM.c **** 
  18:Generated_Source\PSoC5/WaveDAC_2_PM.c **** static WaveDAC_2_BACKUP_STRUCT  WaveDAC_2_backup;
  19:Generated_Source\PSoC5/WaveDAC_2_PM.c **** 
  20:Generated_Source\PSoC5/WaveDAC_2_PM.c **** 
  21:Generated_Source\PSoC5/WaveDAC_2_PM.c **** /*******************************************************************************
  22:Generated_Source\PSoC5/WaveDAC_2_PM.c **** * Function Name: WaveDAC_2_Sleep
  23:Generated_Source\PSoC5/WaveDAC_2_PM.c **** ********************************************************************************
  24:Generated_Source\PSoC5/WaveDAC_2_PM.c **** *
  25:Generated_Source\PSoC5/WaveDAC_2_PM.c **** * Summary:
  26:Generated_Source\PSoC5/WaveDAC_2_PM.c **** *  Stops the component and saves its configuration. Should be called 
  27:Generated_Source\PSoC5/WaveDAC_2_PM.c **** *  just prior to entering sleep.
  28:Generated_Source\PSoC5/WaveDAC_2_PM.c **** *  
  29:Generated_Source\PSoC5/WaveDAC_2_PM.c **** * Parameters:  
  30:Generated_Source\PSoC5/WaveDAC_2_PM.c **** *  None
ARM GAS  C:\Users\admin\AppData\Local\Temp\ccJ2MmDM.s 			page 2


  31:Generated_Source\PSoC5/WaveDAC_2_PM.c **** *
  32:Generated_Source\PSoC5/WaveDAC_2_PM.c **** * Return: 
  33:Generated_Source\PSoC5/WaveDAC_2_PM.c **** *  None
  34:Generated_Source\PSoC5/WaveDAC_2_PM.c **** *
  35:Generated_Source\PSoC5/WaveDAC_2_PM.c **** * Global variables:
  36:Generated_Source\PSoC5/WaveDAC_2_PM.c **** *  WaveDAC_2_backup:  The structure field 'enableState' is modified 
  37:Generated_Source\PSoC5/WaveDAC_2_PM.c **** *  depending on the enable state of the block before entering to sleep mode.
  38:Generated_Source\PSoC5/WaveDAC_2_PM.c **** *
  39:Generated_Source\PSoC5/WaveDAC_2_PM.c **** * Reentrant:
  40:Generated_Source\PSoC5/WaveDAC_2_PM.c **** *  No
  41:Generated_Source\PSoC5/WaveDAC_2_PM.c **** *
  42:Generated_Source\PSoC5/WaveDAC_2_PM.c **** *******************************************************************************/
  43:Generated_Source\PSoC5/WaveDAC_2_PM.c **** void WaveDAC_2_Sleep(void) 
  44:Generated_Source\PSoC5/WaveDAC_2_PM.c **** {
  28              		.loc 1 44 0
  29              		.cfi_startproc
  30              		@ args = 0, pretend = 0, frame = 0
  31              		@ frame_needed = 0, uses_anonymous_args = 0
  32 0000 08B5     		push	{r3, lr}
  33              		.cfi_def_cfa_offset 8
  34              		.cfi_offset 3, -8
  35              		.cfi_offset 14, -4
  45:Generated_Source\PSoC5/WaveDAC_2_PM.c **** 	/* Save DAC8's enable state */
  46:Generated_Source\PSoC5/WaveDAC_2_PM.c **** 
  47:Generated_Source\PSoC5/WaveDAC_2_PM.c **** 	WaveDAC_2_backup.enableState = (WaveDAC_2_VDAC8_ACT_PWR_EN == 
  48:Generated_Source\PSoC5/WaveDAC_2_PM.c **** 		(WaveDAC_2_VDAC8_PWRMGR_REG & WaveDAC_2_VDAC8_ACT_PWR_EN)) ? 1u : 0u ;
  36              		.loc 1 48 0
  37 0002 054B     		ldr	r3, .L3
  38 0004 1B78     		ldrb	r3, [r3]	@ zero_extendqisi2
  47:Generated_Source\PSoC5/WaveDAC_2_PM.c **** 		(WaveDAC_2_VDAC8_PWRMGR_REG & WaveDAC_2_VDAC8_ACT_PWR_EN)) ? 1u : 0u ;
  39              		.loc 1 47 0
  40 0006 03F00103 		and	r3, r3, #1
  41 000a 044A     		ldr	r2, .L3+4
  42 000c 1370     		strb	r3, [r2]
  49:Generated_Source\PSoC5/WaveDAC_2_PM.c **** 	
  50:Generated_Source\PSoC5/WaveDAC_2_PM.c **** 	WaveDAC_2_Stop();
  43              		.loc 1 50 0
  44 000e FFF7FEFF 		bl	WaveDAC_2_Stop
  45              	.LVL0:
  51:Generated_Source\PSoC5/WaveDAC_2_PM.c **** 	WaveDAC_2_SaveConfig();
  46              		.loc 1 51 0
  47 0012 FFF7FEFF 		bl	WaveDAC_2_VDAC8_SaveConfig
  48              	.LVL1:
  49 0016 08BD     		pop	{r3, pc}
  50              	.L4:
  51              		.align	2
  52              	.L3:
  53 0018 A8430040 		.word	1073759144
  54 001c 00000000 		.word	.LANCHOR0
  55              		.cfi_endproc
  56              	.LFE0:
  57              		.size	WaveDAC_2_Sleep, .-WaveDAC_2_Sleep
  58              		.section	.text.WaveDAC_2_Wakeup,"ax",%progbits
  59              		.align	2
  60              		.global	WaveDAC_2_Wakeup
  61              		.thumb
  62              		.thumb_func
ARM GAS  C:\Users\admin\AppData\Local\Temp\ccJ2MmDM.s 			page 3


  63              		.type	WaveDAC_2_Wakeup, %function
  64              	WaveDAC_2_Wakeup:
  65              	.LFB1:
  52:Generated_Source\PSoC5/WaveDAC_2_PM.c **** }
  53:Generated_Source\PSoC5/WaveDAC_2_PM.c **** 
  54:Generated_Source\PSoC5/WaveDAC_2_PM.c **** 
  55:Generated_Source\PSoC5/WaveDAC_2_PM.c **** /*******************************************************************************
  56:Generated_Source\PSoC5/WaveDAC_2_PM.c **** * Function Name: WaveDAC_2_Wakeup
  57:Generated_Source\PSoC5/WaveDAC_2_PM.c **** ********************************************************************************
  58:Generated_Source\PSoC5/WaveDAC_2_PM.c **** *
  59:Generated_Source\PSoC5/WaveDAC_2_PM.c **** * Summary:
  60:Generated_Source\PSoC5/WaveDAC_2_PM.c **** *  Restores the component configuration. Should be called
  61:Generated_Source\PSoC5/WaveDAC_2_PM.c **** *  just after awaking from sleep.
  62:Generated_Source\PSoC5/WaveDAC_2_PM.c **** *  
  63:Generated_Source\PSoC5/WaveDAC_2_PM.c **** * Parameters:  
  64:Generated_Source\PSoC5/WaveDAC_2_PM.c **** *  None
  65:Generated_Source\PSoC5/WaveDAC_2_PM.c **** *
  66:Generated_Source\PSoC5/WaveDAC_2_PM.c **** * Return: 
  67:Generated_Source\PSoC5/WaveDAC_2_PM.c **** *  void
  68:Generated_Source\PSoC5/WaveDAC_2_PM.c **** *
  69:Generated_Source\PSoC5/WaveDAC_2_PM.c **** * Global variables:
  70:Generated_Source\PSoC5/WaveDAC_2_PM.c **** *  WaveDAC_2_backup:  The structure field 'enableState' is used to 
  71:Generated_Source\PSoC5/WaveDAC_2_PM.c **** *  restore the enable state of block after wakeup from sleep mode.
  72:Generated_Source\PSoC5/WaveDAC_2_PM.c **** *
  73:Generated_Source\PSoC5/WaveDAC_2_PM.c **** * Reentrant:
  74:Generated_Source\PSoC5/WaveDAC_2_PM.c **** *  No
  75:Generated_Source\PSoC5/WaveDAC_2_PM.c **** *
  76:Generated_Source\PSoC5/WaveDAC_2_PM.c **** *******************************************************************************/
  77:Generated_Source\PSoC5/WaveDAC_2_PM.c **** void WaveDAC_2_Wakeup(void) 
  78:Generated_Source\PSoC5/WaveDAC_2_PM.c **** {
  66              		.loc 1 78 0
  67              		.cfi_startproc
  68              		@ args = 0, pretend = 0, frame = 0
  69              		@ frame_needed = 0, uses_anonymous_args = 0
  70 0000 08B5     		push	{r3, lr}
  71              		.cfi_def_cfa_offset 8
  72              		.cfi_offset 3, -8
  73              		.cfi_offset 14, -4
  79:Generated_Source\PSoC5/WaveDAC_2_PM.c **** 	WaveDAC_2_RestoreConfig();
  74              		.loc 1 79 0
  75 0002 FFF7FEFF 		bl	WaveDAC_2_VDAC8_RestoreConfig
  76              	.LVL2:
  80:Generated_Source\PSoC5/WaveDAC_2_PM.c **** 
  81:Generated_Source\PSoC5/WaveDAC_2_PM.c **** 	if(WaveDAC_2_backup.enableState == 1u)
  77              		.loc 1 81 0
  78 0006 034B     		ldr	r3, .L8
  79 0008 1B78     		ldrb	r3, [r3]	@ zero_extendqisi2
  80 000a 012B     		cmp	r3, #1
  81 000c 01D1     		bne	.L5
  82:Generated_Source\PSoC5/WaveDAC_2_PM.c **** 	{
  83:Generated_Source\PSoC5/WaveDAC_2_PM.c **** 		WaveDAC_2_Enable();
  82              		.loc 1 83 0
  83 000e FFF7FEFF 		bl	WaveDAC_2_Enable
  84              	.LVL3:
  85              	.L5:
  86 0012 08BD     		pop	{r3, pc}
  87              	.L9:
ARM GAS  C:\Users\admin\AppData\Local\Temp\ccJ2MmDM.s 			page 4


  88              		.align	2
  89              	.L8:
  90 0014 00000000 		.word	.LANCHOR0
  91              		.cfi_endproc
  92              	.LFE1:
  93              		.size	WaveDAC_2_Wakeup, .-WaveDAC_2_Wakeup
  94              		.bss
  95              		.align	2
  96              		.set	.LANCHOR0,. + 0
  97              		.type	WaveDAC_2_backup, %object
  98              		.size	WaveDAC_2_backup, 1
  99              	WaveDAC_2_backup:
 100 0000 00       		.space	1
 101              		.text
 102              	.Letext0:
 103              		.file 2 "Generated_Source\\PSoC5\\cytypes.h"
 104              		.file 3 "Generated_Source\\PSoC5\\WaveDAC_2.h"
 105              		.file 4 "Generated_Source\\PSoC5/WaveDAC_2_VDAC8.h"
