ARM GAS  C:\Users\User\AppData\Local\Temp\ccjIN044.s 			page 1


   1              		.syntax unified
   2              		.cpu cortex-m3
   3              		.fpu softvfp
   4              		.eabi_attribute 20, 1
   5              		.eabi_attribute 21, 1
   6              		.eabi_attribute 23, 3
   7              		.eabi_attribute 24, 1
   8              		.eabi_attribute 25, 1
   9              		.eabi_attribute 26, 1
  10              		.eabi_attribute 30, 1
  11              		.eabi_attribute 34, 1
  12              		.eabi_attribute 18, 4
  13              		.thumb
  14              		.syntax unified
  15              		.file	"WaveDAC8_VDAC8.c"
  16              		.text
  17              	.Ltext0:
  18              		.cfi_sections	.debug_frame
  19              		.section	.text.WaveDAC8_VDAC8_Enable,"ax",%progbits
  20              		.align	2
  21              		.global	WaveDAC8_VDAC8_Enable
  22              		.thumb
  23              		.thumb_func
  24              		.type	WaveDAC8_VDAC8_Enable, %function
  25              	WaveDAC8_VDAC8_Enable:
  26              	.LFB1:
  27              		.file 1 "Generated_Source\\PSoC5\\WaveDAC8_VDAC8.c"
   1:Generated_Source\PSoC5/WaveDAC8_VDAC8.c **** /*******************************************************************************
   2:Generated_Source\PSoC5/WaveDAC8_VDAC8.c **** * File Name: WaveDAC8_VDAC8.c  
   3:Generated_Source\PSoC5/WaveDAC8_VDAC8.c **** * Version 1.90
   4:Generated_Source\PSoC5/WaveDAC8_VDAC8.c **** *
   5:Generated_Source\PSoC5/WaveDAC8_VDAC8.c **** * Description:
   6:Generated_Source\PSoC5/WaveDAC8_VDAC8.c **** *  This file provides the source code to the API for the 8-bit Voltage DAC 
   7:Generated_Source\PSoC5/WaveDAC8_VDAC8.c **** *  (VDAC8) User Module.
   8:Generated_Source\PSoC5/WaveDAC8_VDAC8.c **** *
   9:Generated_Source\PSoC5/WaveDAC8_VDAC8.c **** * Note:
  10:Generated_Source\PSoC5/WaveDAC8_VDAC8.c **** *  Any unusual or non-standard behavior should be noted here. Other-
  11:Generated_Source\PSoC5/WaveDAC8_VDAC8.c **** *  wise, this section should remain blank.
  12:Generated_Source\PSoC5/WaveDAC8_VDAC8.c **** *
  13:Generated_Source\PSoC5/WaveDAC8_VDAC8.c **** ********************************************************************************
  14:Generated_Source\PSoC5/WaveDAC8_VDAC8.c **** * Copyright 2008-2012, Cypress Semiconductor Corporation.  All rights reserved.
  15:Generated_Source\PSoC5/WaveDAC8_VDAC8.c **** * You may use this file only in accordance with the license, terms, conditions, 
  16:Generated_Source\PSoC5/WaveDAC8_VDAC8.c **** * disclaimers, and limitations in the end user license agreement accompanying 
  17:Generated_Source\PSoC5/WaveDAC8_VDAC8.c **** * the software package with which this file was provided.
  18:Generated_Source\PSoC5/WaveDAC8_VDAC8.c **** *******************************************************************************/
  19:Generated_Source\PSoC5/WaveDAC8_VDAC8.c **** 
  20:Generated_Source\PSoC5/WaveDAC8_VDAC8.c **** #include "cytypes.h"
  21:Generated_Source\PSoC5/WaveDAC8_VDAC8.c **** #include "WaveDAC8_VDAC8.h"
  22:Generated_Source\PSoC5/WaveDAC8_VDAC8.c **** 
  23:Generated_Source\PSoC5/WaveDAC8_VDAC8.c **** #if (CY_PSOC5A)
  24:Generated_Source\PSoC5/WaveDAC8_VDAC8.c **** #include <CyLib.h>
  25:Generated_Source\PSoC5/WaveDAC8_VDAC8.c **** #endif /* CY_PSOC5A */
  26:Generated_Source\PSoC5/WaveDAC8_VDAC8.c **** 
  27:Generated_Source\PSoC5/WaveDAC8_VDAC8.c **** uint8 WaveDAC8_VDAC8_initVar = 0u;
  28:Generated_Source\PSoC5/WaveDAC8_VDAC8.c **** 
  29:Generated_Source\PSoC5/WaveDAC8_VDAC8.c **** #if (CY_PSOC5A)
  30:Generated_Source\PSoC5/WaveDAC8_VDAC8.c ****     static uint8 WaveDAC8_VDAC8_restoreVal = 0u;
ARM GAS  C:\Users\User\AppData\Local\Temp\ccjIN044.s 			page 2


  31:Generated_Source\PSoC5/WaveDAC8_VDAC8.c **** #endif /* CY_PSOC5A */
  32:Generated_Source\PSoC5/WaveDAC8_VDAC8.c **** 
  33:Generated_Source\PSoC5/WaveDAC8_VDAC8.c **** #if (CY_PSOC5A)
  34:Generated_Source\PSoC5/WaveDAC8_VDAC8.c ****     static WaveDAC8_VDAC8_backupStruct WaveDAC8_VDAC8_backup;
  35:Generated_Source\PSoC5/WaveDAC8_VDAC8.c **** #endif /* CY_PSOC5A */
  36:Generated_Source\PSoC5/WaveDAC8_VDAC8.c **** 
  37:Generated_Source\PSoC5/WaveDAC8_VDAC8.c **** 
  38:Generated_Source\PSoC5/WaveDAC8_VDAC8.c **** /*******************************************************************************
  39:Generated_Source\PSoC5/WaveDAC8_VDAC8.c **** * Function Name: WaveDAC8_VDAC8_Init
  40:Generated_Source\PSoC5/WaveDAC8_VDAC8.c **** ********************************************************************************
  41:Generated_Source\PSoC5/WaveDAC8_VDAC8.c **** * Summary:
  42:Generated_Source\PSoC5/WaveDAC8_VDAC8.c **** *  Initialize to the schematic state.
  43:Generated_Source\PSoC5/WaveDAC8_VDAC8.c **** * 
  44:Generated_Source\PSoC5/WaveDAC8_VDAC8.c **** * Parameters:
  45:Generated_Source\PSoC5/WaveDAC8_VDAC8.c **** *  void:
  46:Generated_Source\PSoC5/WaveDAC8_VDAC8.c **** *
  47:Generated_Source\PSoC5/WaveDAC8_VDAC8.c **** * Return:
  48:Generated_Source\PSoC5/WaveDAC8_VDAC8.c **** *  void
  49:Generated_Source\PSoC5/WaveDAC8_VDAC8.c **** *
  50:Generated_Source\PSoC5/WaveDAC8_VDAC8.c **** * Theory:
  51:Generated_Source\PSoC5/WaveDAC8_VDAC8.c **** *
  52:Generated_Source\PSoC5/WaveDAC8_VDAC8.c **** * Side Effects:
  53:Generated_Source\PSoC5/WaveDAC8_VDAC8.c **** *
  54:Generated_Source\PSoC5/WaveDAC8_VDAC8.c **** *******************************************************************************/
  55:Generated_Source\PSoC5/WaveDAC8_VDAC8.c **** void WaveDAC8_VDAC8_Init(void) 
  56:Generated_Source\PSoC5/WaveDAC8_VDAC8.c **** {
  57:Generated_Source\PSoC5/WaveDAC8_VDAC8.c ****     WaveDAC8_VDAC8_CR0 = (WaveDAC8_VDAC8_MODE_V );
  58:Generated_Source\PSoC5/WaveDAC8_VDAC8.c **** 
  59:Generated_Source\PSoC5/WaveDAC8_VDAC8.c ****     /* Set default data source */
  60:Generated_Source\PSoC5/WaveDAC8_VDAC8.c ****     #if(WaveDAC8_VDAC8_DEFAULT_DATA_SRC != 0 )
  61:Generated_Source\PSoC5/WaveDAC8_VDAC8.c ****         WaveDAC8_VDAC8_CR1 = (WaveDAC8_VDAC8_DEFAULT_CNTL | WaveDAC8_VDAC8_DACBUS_ENABLE) ;
  62:Generated_Source\PSoC5/WaveDAC8_VDAC8.c ****     #else
  63:Generated_Source\PSoC5/WaveDAC8_VDAC8.c ****         WaveDAC8_VDAC8_CR1 = (WaveDAC8_VDAC8_DEFAULT_CNTL | WaveDAC8_VDAC8_DACBUS_DISABLE) ;
  64:Generated_Source\PSoC5/WaveDAC8_VDAC8.c ****     #endif /* (WaveDAC8_VDAC8_DEFAULT_DATA_SRC != 0 ) */
  65:Generated_Source\PSoC5/WaveDAC8_VDAC8.c **** 
  66:Generated_Source\PSoC5/WaveDAC8_VDAC8.c ****     /* Set default strobe mode */
  67:Generated_Source\PSoC5/WaveDAC8_VDAC8.c ****     #if(WaveDAC8_VDAC8_DEFAULT_STRB != 0)
  68:Generated_Source\PSoC5/WaveDAC8_VDAC8.c ****         WaveDAC8_VDAC8_Strobe |= WaveDAC8_VDAC8_STRB_EN ;
  69:Generated_Source\PSoC5/WaveDAC8_VDAC8.c ****     #endif/* (WaveDAC8_VDAC8_DEFAULT_STRB != 0) */
  70:Generated_Source\PSoC5/WaveDAC8_VDAC8.c **** 
  71:Generated_Source\PSoC5/WaveDAC8_VDAC8.c ****     /* Set default range */
  72:Generated_Source\PSoC5/WaveDAC8_VDAC8.c ****     WaveDAC8_VDAC8_SetRange(WaveDAC8_VDAC8_DEFAULT_RANGE); 
  73:Generated_Source\PSoC5/WaveDAC8_VDAC8.c **** 
  74:Generated_Source\PSoC5/WaveDAC8_VDAC8.c ****     /* Set default speed */
  75:Generated_Source\PSoC5/WaveDAC8_VDAC8.c ****     WaveDAC8_VDAC8_SetSpeed(WaveDAC8_VDAC8_DEFAULT_SPEED);
  76:Generated_Source\PSoC5/WaveDAC8_VDAC8.c **** }
  77:Generated_Source\PSoC5/WaveDAC8_VDAC8.c **** 
  78:Generated_Source\PSoC5/WaveDAC8_VDAC8.c **** 
  79:Generated_Source\PSoC5/WaveDAC8_VDAC8.c **** /*******************************************************************************
  80:Generated_Source\PSoC5/WaveDAC8_VDAC8.c **** * Function Name: WaveDAC8_VDAC8_Enable
  81:Generated_Source\PSoC5/WaveDAC8_VDAC8.c **** ********************************************************************************
  82:Generated_Source\PSoC5/WaveDAC8_VDAC8.c **** * Summary:
  83:Generated_Source\PSoC5/WaveDAC8_VDAC8.c **** *  Enable the VDAC8
  84:Generated_Source\PSoC5/WaveDAC8_VDAC8.c **** * 
  85:Generated_Source\PSoC5/WaveDAC8_VDAC8.c **** * Parameters:
  86:Generated_Source\PSoC5/WaveDAC8_VDAC8.c **** *  void
  87:Generated_Source\PSoC5/WaveDAC8_VDAC8.c **** *
ARM GAS  C:\Users\User\AppData\Local\Temp\ccjIN044.s 			page 3


  88:Generated_Source\PSoC5/WaveDAC8_VDAC8.c **** * Return:
  89:Generated_Source\PSoC5/WaveDAC8_VDAC8.c **** *  void
  90:Generated_Source\PSoC5/WaveDAC8_VDAC8.c **** *
  91:Generated_Source\PSoC5/WaveDAC8_VDAC8.c **** * Theory:
  92:Generated_Source\PSoC5/WaveDAC8_VDAC8.c **** *
  93:Generated_Source\PSoC5/WaveDAC8_VDAC8.c **** * Side Effects:
  94:Generated_Source\PSoC5/WaveDAC8_VDAC8.c **** *
  95:Generated_Source\PSoC5/WaveDAC8_VDAC8.c **** *******************************************************************************/
  96:Generated_Source\PSoC5/WaveDAC8_VDAC8.c **** void WaveDAC8_VDAC8_Enable(void) 
  97:Generated_Source\PSoC5/WaveDAC8_VDAC8.c **** {
  28              		.loc 1 97 0
  29              		.cfi_startproc
  30              		@ args = 0, pretend = 0, frame = 0
  31              		@ frame_needed = 0, uses_anonymous_args = 0
  32              		@ link register save eliminated.
  98:Generated_Source\PSoC5/WaveDAC8_VDAC8.c ****     WaveDAC8_VDAC8_PWRMGR |= WaveDAC8_VDAC8_ACT_PWR_EN;
  33              		.loc 1 98 0
  34 0000 054A     		ldr	r2, .L2
  35 0002 1378     		ldrb	r3, [r2]	@ zero_extendqisi2
  36 0004 43F00803 		orr	r3, r3, #8
  37 0008 1370     		strb	r3, [r2]
  99:Generated_Source\PSoC5/WaveDAC8_VDAC8.c ****     WaveDAC8_VDAC8_STBY_PWRMGR |= WaveDAC8_VDAC8_STBY_PWR_EN;
  38              		.loc 1 99 0
  39 000a 1032     		adds	r2, r2, #16
  40 000c 1378     		ldrb	r3, [r2]	@ zero_extendqisi2
  41 000e 43F00803 		orr	r3, r3, #8
  42 0012 1370     		strb	r3, [r2]
  43 0014 7047     		bx	lr
  44              	.L3:
  45 0016 00BF     		.align	2
  46              	.L2:
  47 0018 A8430040 		.word	1073759144
  48              		.cfi_endproc
  49              	.LFE1:
  50              		.size	WaveDAC8_VDAC8_Enable, .-WaveDAC8_VDAC8_Enable
  51              		.section	.text.WaveDAC8_VDAC8_Stop,"ax",%progbits
  52              		.align	2
  53              		.global	WaveDAC8_VDAC8_Stop
  54              		.thumb
  55              		.thumb_func
  56              		.type	WaveDAC8_VDAC8_Stop, %function
  57              	WaveDAC8_VDAC8_Stop:
  58              	.LFB3:
 100:Generated_Source\PSoC5/WaveDAC8_VDAC8.c **** 
 101:Generated_Source\PSoC5/WaveDAC8_VDAC8.c ****     /*This is to restore the value of register CR0 ,
 102:Generated_Source\PSoC5/WaveDAC8_VDAC8.c ****     which is modified  in Stop API , this prevents misbehaviour of VDAC */
 103:Generated_Source\PSoC5/WaveDAC8_VDAC8.c ****     #if (CY_PSOC5A)
 104:Generated_Source\PSoC5/WaveDAC8_VDAC8.c ****         if(WaveDAC8_VDAC8_restoreVal == 1u) 
 105:Generated_Source\PSoC5/WaveDAC8_VDAC8.c ****         {
 106:Generated_Source\PSoC5/WaveDAC8_VDAC8.c ****              WaveDAC8_VDAC8_CR0 = WaveDAC8_VDAC8_backup.data_value;
 107:Generated_Source\PSoC5/WaveDAC8_VDAC8.c ****              WaveDAC8_VDAC8_restoreVal = 0u;
 108:Generated_Source\PSoC5/WaveDAC8_VDAC8.c ****         }
 109:Generated_Source\PSoC5/WaveDAC8_VDAC8.c ****     #endif /* CY_PSOC5A */
 110:Generated_Source\PSoC5/WaveDAC8_VDAC8.c **** }
 111:Generated_Source\PSoC5/WaveDAC8_VDAC8.c **** 
 112:Generated_Source\PSoC5/WaveDAC8_VDAC8.c **** 
 113:Generated_Source\PSoC5/WaveDAC8_VDAC8.c **** /*******************************************************************************
ARM GAS  C:\Users\User\AppData\Local\Temp\ccjIN044.s 			page 4


 114:Generated_Source\PSoC5/WaveDAC8_VDAC8.c **** * Function Name: WaveDAC8_VDAC8_Start
 115:Generated_Source\PSoC5/WaveDAC8_VDAC8.c **** ********************************************************************************
 116:Generated_Source\PSoC5/WaveDAC8_VDAC8.c **** *
 117:Generated_Source\PSoC5/WaveDAC8_VDAC8.c **** * Summary:
 118:Generated_Source\PSoC5/WaveDAC8_VDAC8.c **** *  The start function initializes the voltage DAC with the default values, 
 119:Generated_Source\PSoC5/WaveDAC8_VDAC8.c **** *  and sets the power to the given level.  A power level of 0, is the same as
 120:Generated_Source\PSoC5/WaveDAC8_VDAC8.c **** *  executing the stop function.
 121:Generated_Source\PSoC5/WaveDAC8_VDAC8.c **** *
 122:Generated_Source\PSoC5/WaveDAC8_VDAC8.c **** * Parameters:
 123:Generated_Source\PSoC5/WaveDAC8_VDAC8.c **** *  Power: Sets power level between off (0) and (3) high power
 124:Generated_Source\PSoC5/WaveDAC8_VDAC8.c **** *
 125:Generated_Source\PSoC5/WaveDAC8_VDAC8.c **** * Return:
 126:Generated_Source\PSoC5/WaveDAC8_VDAC8.c **** *  void 
 127:Generated_Source\PSoC5/WaveDAC8_VDAC8.c **** *
 128:Generated_Source\PSoC5/WaveDAC8_VDAC8.c **** * Global variables:
 129:Generated_Source\PSoC5/WaveDAC8_VDAC8.c **** *  WaveDAC8_VDAC8_initVar: Is modified when this function is called for the 
 130:Generated_Source\PSoC5/WaveDAC8_VDAC8.c **** *  first time. Is used to ensure that initialization happens only once.
 131:Generated_Source\PSoC5/WaveDAC8_VDAC8.c **** *
 132:Generated_Source\PSoC5/WaveDAC8_VDAC8.c **** *******************************************************************************/
 133:Generated_Source\PSoC5/WaveDAC8_VDAC8.c **** void WaveDAC8_VDAC8_Start(void)  
 134:Generated_Source\PSoC5/WaveDAC8_VDAC8.c **** {
 135:Generated_Source\PSoC5/WaveDAC8_VDAC8.c ****     /* Hardware initiazation only needs to occure the first time */
 136:Generated_Source\PSoC5/WaveDAC8_VDAC8.c ****     if(WaveDAC8_VDAC8_initVar == 0u)
 137:Generated_Source\PSoC5/WaveDAC8_VDAC8.c ****     { 
 138:Generated_Source\PSoC5/WaveDAC8_VDAC8.c ****         WaveDAC8_VDAC8_Init();
 139:Generated_Source\PSoC5/WaveDAC8_VDAC8.c ****         WaveDAC8_VDAC8_initVar = 1u;
 140:Generated_Source\PSoC5/WaveDAC8_VDAC8.c ****     }
 141:Generated_Source\PSoC5/WaveDAC8_VDAC8.c **** 
 142:Generated_Source\PSoC5/WaveDAC8_VDAC8.c ****     /* Enable power to DAC */
 143:Generated_Source\PSoC5/WaveDAC8_VDAC8.c ****     WaveDAC8_VDAC8_Enable();
 144:Generated_Source\PSoC5/WaveDAC8_VDAC8.c **** 
 145:Generated_Source\PSoC5/WaveDAC8_VDAC8.c ****     /* Set default value */
 146:Generated_Source\PSoC5/WaveDAC8_VDAC8.c ****     WaveDAC8_VDAC8_SetValue(WaveDAC8_VDAC8_DEFAULT_DATA); 
 147:Generated_Source\PSoC5/WaveDAC8_VDAC8.c **** }
 148:Generated_Source\PSoC5/WaveDAC8_VDAC8.c **** 
 149:Generated_Source\PSoC5/WaveDAC8_VDAC8.c **** 
 150:Generated_Source\PSoC5/WaveDAC8_VDAC8.c **** /*******************************************************************************
 151:Generated_Source\PSoC5/WaveDAC8_VDAC8.c **** * Function Name: WaveDAC8_VDAC8_Stop
 152:Generated_Source\PSoC5/WaveDAC8_VDAC8.c **** ********************************************************************************
 153:Generated_Source\PSoC5/WaveDAC8_VDAC8.c **** *
 154:Generated_Source\PSoC5/WaveDAC8_VDAC8.c **** * Summary:
 155:Generated_Source\PSoC5/WaveDAC8_VDAC8.c **** *  Powers down DAC to lowest power state.
 156:Generated_Source\PSoC5/WaveDAC8_VDAC8.c **** *
 157:Generated_Source\PSoC5/WaveDAC8_VDAC8.c **** * Parameters:
 158:Generated_Source\PSoC5/WaveDAC8_VDAC8.c **** *  void
 159:Generated_Source\PSoC5/WaveDAC8_VDAC8.c **** *
 160:Generated_Source\PSoC5/WaveDAC8_VDAC8.c **** * Return:
 161:Generated_Source\PSoC5/WaveDAC8_VDAC8.c **** *  void
 162:Generated_Source\PSoC5/WaveDAC8_VDAC8.c **** *
 163:Generated_Source\PSoC5/WaveDAC8_VDAC8.c **** * Theory:
 164:Generated_Source\PSoC5/WaveDAC8_VDAC8.c **** *
 165:Generated_Source\PSoC5/WaveDAC8_VDAC8.c **** * Side Effects:
 166:Generated_Source\PSoC5/WaveDAC8_VDAC8.c **** *
 167:Generated_Source\PSoC5/WaveDAC8_VDAC8.c **** *******************************************************************************/
 168:Generated_Source\PSoC5/WaveDAC8_VDAC8.c **** void WaveDAC8_VDAC8_Stop(void) 
 169:Generated_Source\PSoC5/WaveDAC8_VDAC8.c **** {
  59              		.loc 1 169 0
ARM GAS  C:\Users\User\AppData\Local\Temp\ccjIN044.s 			page 5


  60              		.cfi_startproc
  61              		@ args = 0, pretend = 0, frame = 0
  62              		@ frame_needed = 0, uses_anonymous_args = 0
  63              		@ link register save eliminated.
 170:Generated_Source\PSoC5/WaveDAC8_VDAC8.c ****     /* Disble power to DAC */
 171:Generated_Source\PSoC5/WaveDAC8_VDAC8.c ****     WaveDAC8_VDAC8_PWRMGR &= (uint8)(~WaveDAC8_VDAC8_ACT_PWR_EN);
  64              		.loc 1 171 0
  65 0000 054A     		ldr	r2, .L5
  66 0002 1378     		ldrb	r3, [r2]	@ zero_extendqisi2
  67 0004 03F0F703 		and	r3, r3, #247
  68 0008 1370     		strb	r3, [r2]
 172:Generated_Source\PSoC5/WaveDAC8_VDAC8.c ****     WaveDAC8_VDAC8_STBY_PWRMGR &= (uint8)(~WaveDAC8_VDAC8_STBY_PWR_EN);
  69              		.loc 1 172 0
  70 000a 1032     		adds	r2, r2, #16
  71 000c 1378     		ldrb	r3, [r2]	@ zero_extendqisi2
  72 000e 03F0F703 		and	r3, r3, #247
  73 0012 1370     		strb	r3, [r2]
  74 0014 7047     		bx	lr
  75              	.L6:
  76 0016 00BF     		.align	2
  77              	.L5:
  78 0018 A8430040 		.word	1073759144
  79              		.cfi_endproc
  80              	.LFE3:
  81              		.size	WaveDAC8_VDAC8_Stop, .-WaveDAC8_VDAC8_Stop
  82              		.section	.text.WaveDAC8_VDAC8_SetSpeed,"ax",%progbits
  83              		.align	2
  84              		.global	WaveDAC8_VDAC8_SetSpeed
  85              		.thumb
  86              		.thumb_func
  87              		.type	WaveDAC8_VDAC8_SetSpeed, %function
  88              	WaveDAC8_VDAC8_SetSpeed:
  89              	.LFB4:
 173:Generated_Source\PSoC5/WaveDAC8_VDAC8.c **** 
 174:Generated_Source\PSoC5/WaveDAC8_VDAC8.c ****     /* This is a work around for PSoC5A  ,
 175:Generated_Source\PSoC5/WaveDAC8_VDAC8.c ****     this sets VDAC to current mode with output off */
 176:Generated_Source\PSoC5/WaveDAC8_VDAC8.c ****     #if (CY_PSOC5A)
 177:Generated_Source\PSoC5/WaveDAC8_VDAC8.c ****         WaveDAC8_VDAC8_backup.data_value = WaveDAC8_VDAC8_CR0;
 178:Generated_Source\PSoC5/WaveDAC8_VDAC8.c ****         WaveDAC8_VDAC8_CR0 = WaveDAC8_VDAC8_CUR_MODE_OUT_OFF;
 179:Generated_Source\PSoC5/WaveDAC8_VDAC8.c ****         WaveDAC8_VDAC8_restoreVal = 1u;
 180:Generated_Source\PSoC5/WaveDAC8_VDAC8.c ****     #endif /* CY_PSOC5A */
 181:Generated_Source\PSoC5/WaveDAC8_VDAC8.c **** }
 182:Generated_Source\PSoC5/WaveDAC8_VDAC8.c **** 
 183:Generated_Source\PSoC5/WaveDAC8_VDAC8.c **** 
 184:Generated_Source\PSoC5/WaveDAC8_VDAC8.c **** /*******************************************************************************
 185:Generated_Source\PSoC5/WaveDAC8_VDAC8.c **** * Function Name: WaveDAC8_VDAC8_SetSpeed
 186:Generated_Source\PSoC5/WaveDAC8_VDAC8.c **** ********************************************************************************
 187:Generated_Source\PSoC5/WaveDAC8_VDAC8.c **** *
 188:Generated_Source\PSoC5/WaveDAC8_VDAC8.c **** * Summary:
 189:Generated_Source\PSoC5/WaveDAC8_VDAC8.c **** *  Set DAC speed
 190:Generated_Source\PSoC5/WaveDAC8_VDAC8.c **** *
 191:Generated_Source\PSoC5/WaveDAC8_VDAC8.c **** * Parameters:
 192:Generated_Source\PSoC5/WaveDAC8_VDAC8.c **** *  power: Sets speed value
 193:Generated_Source\PSoC5/WaveDAC8_VDAC8.c **** *
 194:Generated_Source\PSoC5/WaveDAC8_VDAC8.c **** * Return:
 195:Generated_Source\PSoC5/WaveDAC8_VDAC8.c **** *  void
 196:Generated_Source\PSoC5/WaveDAC8_VDAC8.c **** *
ARM GAS  C:\Users\User\AppData\Local\Temp\ccjIN044.s 			page 6


 197:Generated_Source\PSoC5/WaveDAC8_VDAC8.c **** * Theory:
 198:Generated_Source\PSoC5/WaveDAC8_VDAC8.c **** *
 199:Generated_Source\PSoC5/WaveDAC8_VDAC8.c **** * Side Effects:
 200:Generated_Source\PSoC5/WaveDAC8_VDAC8.c **** *
 201:Generated_Source\PSoC5/WaveDAC8_VDAC8.c **** *******************************************************************************/
 202:Generated_Source\PSoC5/WaveDAC8_VDAC8.c **** void WaveDAC8_VDAC8_SetSpeed(uint8 speed) 
 203:Generated_Source\PSoC5/WaveDAC8_VDAC8.c **** {
  90              		.loc 1 203 0
  91              		.cfi_startproc
  92              		@ args = 0, pretend = 0, frame = 0
  93              		@ frame_needed = 0, uses_anonymous_args = 0
  94              		@ link register save eliminated.
  95              	.LVL0:
 204:Generated_Source\PSoC5/WaveDAC8_VDAC8.c ****     /* Clear power mask then write in new value */
 205:Generated_Source\PSoC5/WaveDAC8_VDAC8.c ****     WaveDAC8_VDAC8_CR0 &= (uint8)(~WaveDAC8_VDAC8_HS_MASK);
  96              		.loc 1 205 0
  97 0000 054B     		ldr	r3, .L8
  98 0002 1A78     		ldrb	r2, [r3]	@ zero_extendqisi2
  99 0004 02F0FD02 		and	r2, r2, #253
 100 0008 1A70     		strb	r2, [r3]
 206:Generated_Source\PSoC5/WaveDAC8_VDAC8.c ****     WaveDAC8_VDAC8_CR0 |=  (speed & WaveDAC8_VDAC8_HS_MASK);
 101              		.loc 1 206 0
 102 000a 1A78     		ldrb	r2, [r3]	@ zero_extendqisi2
 103 000c 00F00200 		and	r0, r0, #2
 104              	.LVL1:
 105 0010 1043     		orrs	r0, r0, r2
 106 0012 1870     		strb	r0, [r3]
 107 0014 7047     		bx	lr
 108              	.L9:
 109 0016 00BF     		.align	2
 110              	.L8:
 111 0018 2C580040 		.word	1073764396
 112              		.cfi_endproc
 113              	.LFE4:
 114              		.size	WaveDAC8_VDAC8_SetSpeed, .-WaveDAC8_VDAC8_SetSpeed
 115              		.section	.text.WaveDAC8_VDAC8_SetValue,"ax",%progbits
 116              		.align	2
 117              		.global	WaveDAC8_VDAC8_SetValue
 118              		.thumb
 119              		.thumb_func
 120              		.type	WaveDAC8_VDAC8_SetValue, %function
 121              	WaveDAC8_VDAC8_SetValue:
 122              	.LFB6:
 207:Generated_Source\PSoC5/WaveDAC8_VDAC8.c **** }
 208:Generated_Source\PSoC5/WaveDAC8_VDAC8.c **** 
 209:Generated_Source\PSoC5/WaveDAC8_VDAC8.c **** 
 210:Generated_Source\PSoC5/WaveDAC8_VDAC8.c **** /*******************************************************************************
 211:Generated_Source\PSoC5/WaveDAC8_VDAC8.c **** * Function Name: WaveDAC8_VDAC8_SetRange
 212:Generated_Source\PSoC5/WaveDAC8_VDAC8.c **** ********************************************************************************
 213:Generated_Source\PSoC5/WaveDAC8_VDAC8.c **** *
 214:Generated_Source\PSoC5/WaveDAC8_VDAC8.c **** * Summary:
 215:Generated_Source\PSoC5/WaveDAC8_VDAC8.c **** *  Set one of three current ranges.
 216:Generated_Source\PSoC5/WaveDAC8_VDAC8.c **** *
 217:Generated_Source\PSoC5/WaveDAC8_VDAC8.c **** * Parameters:
 218:Generated_Source\PSoC5/WaveDAC8_VDAC8.c **** *  Range: Sets one of Three valid ranges.
 219:Generated_Source\PSoC5/WaveDAC8_VDAC8.c **** *
 220:Generated_Source\PSoC5/WaveDAC8_VDAC8.c **** * Return:
ARM GAS  C:\Users\User\AppData\Local\Temp\ccjIN044.s 			page 7


 221:Generated_Source\PSoC5/WaveDAC8_VDAC8.c **** *  void 
 222:Generated_Source\PSoC5/WaveDAC8_VDAC8.c **** *
 223:Generated_Source\PSoC5/WaveDAC8_VDAC8.c **** * Theory:
 224:Generated_Source\PSoC5/WaveDAC8_VDAC8.c **** *
 225:Generated_Source\PSoC5/WaveDAC8_VDAC8.c **** * Side Effects:
 226:Generated_Source\PSoC5/WaveDAC8_VDAC8.c **** *
 227:Generated_Source\PSoC5/WaveDAC8_VDAC8.c **** *******************************************************************************/
 228:Generated_Source\PSoC5/WaveDAC8_VDAC8.c **** void WaveDAC8_VDAC8_SetRange(uint8 range) 
 229:Generated_Source\PSoC5/WaveDAC8_VDAC8.c **** {
 230:Generated_Source\PSoC5/WaveDAC8_VDAC8.c ****     WaveDAC8_VDAC8_CR0 &= (uint8)(~WaveDAC8_VDAC8_RANGE_MASK);      /* Clear existing mode */
 231:Generated_Source\PSoC5/WaveDAC8_VDAC8.c ****     WaveDAC8_VDAC8_CR0 |= (range & WaveDAC8_VDAC8_RANGE_MASK);      /*  Set Range  */
 232:Generated_Source\PSoC5/WaveDAC8_VDAC8.c ****     WaveDAC8_VDAC8_DacTrim();
 233:Generated_Source\PSoC5/WaveDAC8_VDAC8.c **** }
 234:Generated_Source\PSoC5/WaveDAC8_VDAC8.c **** 
 235:Generated_Source\PSoC5/WaveDAC8_VDAC8.c **** 
 236:Generated_Source\PSoC5/WaveDAC8_VDAC8.c **** /*******************************************************************************
 237:Generated_Source\PSoC5/WaveDAC8_VDAC8.c **** * Function Name: WaveDAC8_VDAC8_SetValue
 238:Generated_Source\PSoC5/WaveDAC8_VDAC8.c **** ********************************************************************************
 239:Generated_Source\PSoC5/WaveDAC8_VDAC8.c **** *
 240:Generated_Source\PSoC5/WaveDAC8_VDAC8.c **** * Summary:
 241:Generated_Source\PSoC5/WaveDAC8_VDAC8.c **** *  Set 8-bit DAC value
 242:Generated_Source\PSoC5/WaveDAC8_VDAC8.c **** *
 243:Generated_Source\PSoC5/WaveDAC8_VDAC8.c **** * Parameters:  
 244:Generated_Source\PSoC5/WaveDAC8_VDAC8.c **** *  value:  Sets DAC value between 0 and 255.
 245:Generated_Source\PSoC5/WaveDAC8_VDAC8.c **** *
 246:Generated_Source\PSoC5/WaveDAC8_VDAC8.c **** * Return: 
 247:Generated_Source\PSoC5/WaveDAC8_VDAC8.c **** *  void 
 248:Generated_Source\PSoC5/WaveDAC8_VDAC8.c **** *
 249:Generated_Source\PSoC5/WaveDAC8_VDAC8.c **** * Theory: 
 250:Generated_Source\PSoC5/WaveDAC8_VDAC8.c **** *
 251:Generated_Source\PSoC5/WaveDAC8_VDAC8.c **** * Side Effects:
 252:Generated_Source\PSoC5/WaveDAC8_VDAC8.c **** *
 253:Generated_Source\PSoC5/WaveDAC8_VDAC8.c **** *******************************************************************************/
 254:Generated_Source\PSoC5/WaveDAC8_VDAC8.c **** void WaveDAC8_VDAC8_SetValue(uint8 value) 
 255:Generated_Source\PSoC5/WaveDAC8_VDAC8.c **** {
 123              		.loc 1 255 0
 124              		.cfi_startproc
 125              		@ args = 0, pretend = 0, frame = 0
 126              		@ frame_needed = 0, uses_anonymous_args = 0
 127              		@ link register save eliminated.
 128              	.LVL2:
 256:Generated_Source\PSoC5/WaveDAC8_VDAC8.c ****     #if (CY_PSOC5A)
 257:Generated_Source\PSoC5/WaveDAC8_VDAC8.c ****         uint8 WaveDAC8_VDAC8_intrStatus = CyEnterCriticalSection();
 258:Generated_Source\PSoC5/WaveDAC8_VDAC8.c ****     #endif /* CY_PSOC5A */
 259:Generated_Source\PSoC5/WaveDAC8_VDAC8.c **** 
 260:Generated_Source\PSoC5/WaveDAC8_VDAC8.c ****     WaveDAC8_VDAC8_Data = value;                /*  Set Value  */
 129              		.loc 1 260 0
 130 0000 014B     		ldr	r3, .L11
 131 0002 1870     		strb	r0, [r3]
 132 0004 7047     		bx	lr
 133              	.L12:
 134 0006 00BF     		.align	2
 135              	.L11:
 136 0008 835B0040 		.word	1073765251
 137              		.cfi_endproc
 138              	.LFE6:
 139              		.size	WaveDAC8_VDAC8_SetValue, .-WaveDAC8_VDAC8_SetValue
ARM GAS  C:\Users\User\AppData\Local\Temp\ccjIN044.s 			page 8


 140              		.section	.text.WaveDAC8_VDAC8_DacTrim,"ax",%progbits
 141              		.align	2
 142              		.global	WaveDAC8_VDAC8_DacTrim
 143              		.thumb
 144              		.thumb_func
 145              		.type	WaveDAC8_VDAC8_DacTrim, %function
 146              	WaveDAC8_VDAC8_DacTrim:
 147              	.LFB7:
 261:Generated_Source\PSoC5/WaveDAC8_VDAC8.c **** 
 262:Generated_Source\PSoC5/WaveDAC8_VDAC8.c ****     /* PSOC5A requires a double write */
 263:Generated_Source\PSoC5/WaveDAC8_VDAC8.c ****     /* Exit Critical Section */
 264:Generated_Source\PSoC5/WaveDAC8_VDAC8.c ****     #if (CY_PSOC5A)
 265:Generated_Source\PSoC5/WaveDAC8_VDAC8.c ****         WaveDAC8_VDAC8_Data = value;
 266:Generated_Source\PSoC5/WaveDAC8_VDAC8.c ****         CyExitCriticalSection(WaveDAC8_VDAC8_intrStatus);
 267:Generated_Source\PSoC5/WaveDAC8_VDAC8.c ****     #endif /* CY_PSOC5A */
 268:Generated_Source\PSoC5/WaveDAC8_VDAC8.c **** }
 269:Generated_Source\PSoC5/WaveDAC8_VDAC8.c **** 
 270:Generated_Source\PSoC5/WaveDAC8_VDAC8.c **** 
 271:Generated_Source\PSoC5/WaveDAC8_VDAC8.c **** /*******************************************************************************
 272:Generated_Source\PSoC5/WaveDAC8_VDAC8.c **** * Function Name: WaveDAC8_VDAC8_DacTrim
 273:Generated_Source\PSoC5/WaveDAC8_VDAC8.c **** ********************************************************************************
 274:Generated_Source\PSoC5/WaveDAC8_VDAC8.c **** *
 275:Generated_Source\PSoC5/WaveDAC8_VDAC8.c **** * Summary:
 276:Generated_Source\PSoC5/WaveDAC8_VDAC8.c **** *  Set the trim value for the given range.
 277:Generated_Source\PSoC5/WaveDAC8_VDAC8.c **** *
 278:Generated_Source\PSoC5/WaveDAC8_VDAC8.c **** * Parameters:
 279:Generated_Source\PSoC5/WaveDAC8_VDAC8.c **** *  range:  1V or 4V range.  See constants.
 280:Generated_Source\PSoC5/WaveDAC8_VDAC8.c **** *
 281:Generated_Source\PSoC5/WaveDAC8_VDAC8.c **** * Return:
 282:Generated_Source\PSoC5/WaveDAC8_VDAC8.c **** *  void
 283:Generated_Source\PSoC5/WaveDAC8_VDAC8.c **** *
 284:Generated_Source\PSoC5/WaveDAC8_VDAC8.c **** * Theory: 
 285:Generated_Source\PSoC5/WaveDAC8_VDAC8.c **** *
 286:Generated_Source\PSoC5/WaveDAC8_VDAC8.c **** * Side Effects:
 287:Generated_Source\PSoC5/WaveDAC8_VDAC8.c **** *
 288:Generated_Source\PSoC5/WaveDAC8_VDAC8.c **** *******************************************************************************/
 289:Generated_Source\PSoC5/WaveDAC8_VDAC8.c **** void WaveDAC8_VDAC8_DacTrim(void) 
 290:Generated_Source\PSoC5/WaveDAC8_VDAC8.c **** {
 148              		.loc 1 290 0
 149              		.cfi_startproc
 150              		@ args = 0, pretend = 0, frame = 0
 151              		@ frame_needed = 0, uses_anonymous_args = 0
 152              		@ link register save eliminated.
 291:Generated_Source\PSoC5/WaveDAC8_VDAC8.c ****     uint8 mode;
 292:Generated_Source\PSoC5/WaveDAC8_VDAC8.c **** 
 293:Generated_Source\PSoC5/WaveDAC8_VDAC8.c ****     mode = (uint8)((WaveDAC8_VDAC8_CR0 & WaveDAC8_VDAC8_RANGE_MASK) >> 2) + WaveDAC8_VDAC8_TRIM_M7_
 153              		.loc 1 293 0
 154 0000 064B     		ldr	r3, .L14
 155 0002 1B78     		ldrb	r3, [r3]	@ zero_extendqisi2
 156 0004 C3F38103 		ubfx	r3, r3, #2, #2
 157              	.LVL3:
 294:Generated_Source\PSoC5/WaveDAC8_VDAC8.c ****     WaveDAC8_VDAC8_TR = CY_GET_XTND_REG8((uint8 *)(WaveDAC8_VDAC8_DAC_TRIM_BASE + mode));
 158              		.loc 1 294 0
 159 0008 03F19243 		add	r3, r3, #1224736768
 160              	.LVL4:
 161 000c 0633     		adds	r3, r3, #6
 162              	.LVL5:
ARM GAS  C:\Users\User\AppData\Local\Temp\ccjIN044.s 			page 9


 163 000e 93F83831 		ldrb	r3, [r3, #312]	@ zero_extendqisi2
 164              	.LVL6:
 165 0012 DBB2     		uxtb	r3, r3
 166 0014 024A     		ldr	r2, .L14+4
 167 0016 1370     		strb	r3, [r2]
 168 0018 7047     		bx	lr
 169              	.L15:
 170 001a 00BF     		.align	2
 171              	.L14:
 172 001c 2C580040 		.word	1073764396
 173 0020 0B460040 		.word	1073759755
 174              		.cfi_endproc
 175              	.LFE7:
 176              		.size	WaveDAC8_VDAC8_DacTrim, .-WaveDAC8_VDAC8_DacTrim
 177              		.section	.text.WaveDAC8_VDAC8_SetRange,"ax",%progbits
 178              		.align	2
 179              		.global	WaveDAC8_VDAC8_SetRange
 180              		.thumb
 181              		.thumb_func
 182              		.type	WaveDAC8_VDAC8_SetRange, %function
 183              	WaveDAC8_VDAC8_SetRange:
 184              	.LFB5:
 229:Generated_Source\PSoC5/WaveDAC8_VDAC8.c ****     WaveDAC8_VDAC8_CR0 &= (uint8)(~WaveDAC8_VDAC8_RANGE_MASK);      /* Clear existing mode */
 185              		.loc 1 229 0
 186              		.cfi_startproc
 187              		@ args = 0, pretend = 0, frame = 0
 188              		@ frame_needed = 0, uses_anonymous_args = 0
 189              	.LVL7:
 190 0000 08B5     		push	{r3, lr}
 191              		.cfi_def_cfa_offset 8
 192              		.cfi_offset 3, -8
 193              		.cfi_offset 14, -4
 230:Generated_Source\PSoC5/WaveDAC8_VDAC8.c ****     WaveDAC8_VDAC8_CR0 |= (range & WaveDAC8_VDAC8_RANGE_MASK);      /*  Set Range  */
 194              		.loc 1 230 0
 195 0002 064B     		ldr	r3, .L18
 196 0004 1A78     		ldrb	r2, [r3]	@ zero_extendqisi2
 197 0006 02F0F302 		and	r2, r2, #243
 198 000a 1A70     		strb	r2, [r3]
 231:Generated_Source\PSoC5/WaveDAC8_VDAC8.c ****     WaveDAC8_VDAC8_DacTrim();
 199              		.loc 1 231 0
 200 000c 1A78     		ldrb	r2, [r3]	@ zero_extendqisi2
 201 000e 00F00C00 		and	r0, r0, #12
 202              	.LVL8:
 203 0012 1043     		orrs	r0, r0, r2
 204 0014 1870     		strb	r0, [r3]
 232:Generated_Source\PSoC5/WaveDAC8_VDAC8.c **** }
 205              		.loc 1 232 0
 206 0016 FFF7FEFF 		bl	WaveDAC8_VDAC8_DacTrim
 207              	.LVL9:
 208 001a 08BD     		pop	{r3, pc}
 209              	.L19:
 210              		.align	2
 211              	.L18:
 212 001c 2C580040 		.word	1073764396
 213              		.cfi_endproc
 214              	.LFE5:
 215              		.size	WaveDAC8_VDAC8_SetRange, .-WaveDAC8_VDAC8_SetRange
ARM GAS  C:\Users\User\AppData\Local\Temp\ccjIN044.s 			page 10


 216              		.section	.text.WaveDAC8_VDAC8_Init,"ax",%progbits
 217              		.align	2
 218              		.global	WaveDAC8_VDAC8_Init
 219              		.thumb
 220              		.thumb_func
 221              		.type	WaveDAC8_VDAC8_Init, %function
 222              	WaveDAC8_VDAC8_Init:
 223              	.LFB0:
  56:Generated_Source\PSoC5/WaveDAC8_VDAC8.c ****     WaveDAC8_VDAC8_CR0 = (WaveDAC8_VDAC8_MODE_V );
 224              		.loc 1 56 0
 225              		.cfi_startproc
 226              		@ args = 0, pretend = 0, frame = 0
 227              		@ frame_needed = 0, uses_anonymous_args = 0
 228 0000 08B5     		push	{r3, lr}
 229              		.cfi_def_cfa_offset 8
 230              		.cfi_offset 3, -8
 231              		.cfi_offset 14, -4
  57:Generated_Source\PSoC5/WaveDAC8_VDAC8.c **** 
 232              		.loc 1 57 0
 233 0002 0020     		movs	r0, #0
 234 0004 074B     		ldr	r3, .L22
 235 0006 1870     		strb	r0, [r3]
  63:Generated_Source\PSoC5/WaveDAC8_VDAC8.c ****     #endif /* (WaveDAC8_VDAC8_DEFAULT_DATA_SRC != 0 ) */
 236              		.loc 1 63 0
 237 0008 0133     		adds	r3, r3, #1
 238 000a 1870     		strb	r0, [r3]
  68:Generated_Source\PSoC5/WaveDAC8_VDAC8.c ****     #endif/* (WaveDAC8_VDAC8_DEFAULT_STRB != 0) */
 239              		.loc 1 68 0
 240 000c 064A     		ldr	r2, .L22+4
 241 000e 1378     		ldrb	r3, [r2]	@ zero_extendqisi2
 242 0010 43F00803 		orr	r3, r3, #8
 243 0014 1370     		strb	r3, [r2]
  72:Generated_Source\PSoC5/WaveDAC8_VDAC8.c **** 
 244              		.loc 1 72 0
 245 0016 FFF7FEFF 		bl	WaveDAC8_VDAC8_SetRange
 246              	.LVL10:
  75:Generated_Source\PSoC5/WaveDAC8_VDAC8.c **** }
 247              		.loc 1 75 0
 248 001a 0220     		movs	r0, #2
 249 001c FFF7FEFF 		bl	WaveDAC8_VDAC8_SetSpeed
 250              	.LVL11:
 251 0020 08BD     		pop	{r3, pc}
 252              	.L23:
 253 0022 00BF     		.align	2
 254              	.L22:
 255 0024 2C580040 		.word	1073764396
 256 0028 9F5A0040 		.word	1073765023
 257              		.cfi_endproc
 258              	.LFE0:
 259              		.size	WaveDAC8_VDAC8_Init, .-WaveDAC8_VDAC8_Init
 260              		.section	.text.WaveDAC8_VDAC8_Start,"ax",%progbits
 261              		.align	2
 262              		.global	WaveDAC8_VDAC8_Start
 263              		.thumb
 264              		.thumb_func
 265              		.type	WaveDAC8_VDAC8_Start, %function
 266              	WaveDAC8_VDAC8_Start:
ARM GAS  C:\Users\User\AppData\Local\Temp\ccjIN044.s 			page 11


 267              	.LFB2:
 134:Generated_Source\PSoC5/WaveDAC8_VDAC8.c ****     /* Hardware initiazation only needs to occure the first time */
 268              		.loc 1 134 0
 269              		.cfi_startproc
 270              		@ args = 0, pretend = 0, frame = 0
 271              		@ frame_needed = 0, uses_anonymous_args = 0
 272 0000 08B5     		push	{r3, lr}
 273              		.cfi_def_cfa_offset 8
 274              		.cfi_offset 3, -8
 275              		.cfi_offset 14, -4
 136:Generated_Source\PSoC5/WaveDAC8_VDAC8.c ****     { 
 276              		.loc 1 136 0
 277 0002 074B     		ldr	r3, .L27
 278 0004 1B78     		ldrb	r3, [r3]	@ zero_extendqisi2
 279 0006 23B9     		cbnz	r3, .L25
 138:Generated_Source\PSoC5/WaveDAC8_VDAC8.c ****         WaveDAC8_VDAC8_initVar = 1u;
 280              		.loc 1 138 0
 281 0008 FFF7FEFF 		bl	WaveDAC8_VDAC8_Init
 282              	.LVL12:
 139:Generated_Source\PSoC5/WaveDAC8_VDAC8.c ****     }
 283              		.loc 1 139 0
 284 000c 0122     		movs	r2, #1
 285 000e 044B     		ldr	r3, .L27
 286 0010 1A70     		strb	r2, [r3]
 287              	.L25:
 143:Generated_Source\PSoC5/WaveDAC8_VDAC8.c **** 
 288              		.loc 1 143 0
 289 0012 FFF7FEFF 		bl	WaveDAC8_VDAC8_Enable
 290              	.LVL13:
 146:Generated_Source\PSoC5/WaveDAC8_VDAC8.c **** }
 291              		.loc 1 146 0
 292 0016 6420     		movs	r0, #100
 293 0018 FFF7FEFF 		bl	WaveDAC8_VDAC8_SetValue
 294              	.LVL14:
 295 001c 08BD     		pop	{r3, pc}
 296              	.L28:
 297 001e 00BF     		.align	2
 298              	.L27:
 299 0020 00000000 		.word	.LANCHOR0
 300              		.cfi_endproc
 301              	.LFE2:
 302              		.size	WaveDAC8_VDAC8_Start, .-WaveDAC8_VDAC8_Start
 303              		.global	WaveDAC8_VDAC8_initVar
 304              		.bss
 305              		.set	.LANCHOR0,. + 0
 306              		.type	WaveDAC8_VDAC8_initVar, %object
 307              		.size	WaveDAC8_VDAC8_initVar, 1
 308              	WaveDAC8_VDAC8_initVar:
 309 0000 00       		.space	1
 310              		.text
 311              	.Letext0:
 312              		.file 2 "Generated_Source\\PSoC5\\cytypes.h"
