ARM GAS  C:\Users\admin\AppData\Local\Temp\ccZEVLam.s 			page 1


   1              		.syntax unified
   2              		.cpu cortex-m3
   3              		.fpu softvfp
   4              		.eabi_attribute 20, 1
   5              		.eabi_attribute 21, 1
   6              		.eabi_attribute 23, 3
   7              		.eabi_attribute 24, 1
   8              		.eabi_attribute 25, 1
   9              		.eabi_attribute 26, 1
  10              		.eabi_attribute 30, 1
  11              		.eabi_attribute 34, 1
  12              		.eabi_attribute 18, 4
  13              		.thumb
  14              		.syntax unified
  15              		.file	"WaveDAC_2.c"
  16              		.text
  17              	.Ltext0:
  18              		.cfi_sections	.debug_frame
  19              		.section	.text.WaveDAC_2_Enable,"ax",%progbits
  20              		.align	2
  21              		.global	WaveDAC_2_Enable
  22              		.thumb
  23              		.thumb_func
  24              		.type	WaveDAC_2_Enable, %function
  25              	WaveDAC_2_Enable:
  26              	.LFB1:
  27              		.file 1 "Generated_Source\\PSoC5\\WaveDAC_2.c"
   1:Generated_Source\PSoC5/WaveDAC_2.c **** /*******************************************************************************
   2:Generated_Source\PSoC5/WaveDAC_2.c **** * File Name: WaveDAC_2.c
   3:Generated_Source\PSoC5/WaveDAC_2.c **** * Version 2.10
   4:Generated_Source\PSoC5/WaveDAC_2.c **** *
   5:Generated_Source\PSoC5/WaveDAC_2.c **** * Description:
   6:Generated_Source\PSoC5/WaveDAC_2.c **** *  This file provides the source code for the 8-bit Waveform DAC 
   7:Generated_Source\PSoC5/WaveDAC_2.c **** *  (WaveDAC8) Component.
   8:Generated_Source\PSoC5/WaveDAC_2.c **** *
   9:Generated_Source\PSoC5/WaveDAC_2.c **** ********************************************************************************
  10:Generated_Source\PSoC5/WaveDAC_2.c **** * Copyright 2013, Cypress Semiconductor Corporation.  All rights reserved.
  11:Generated_Source\PSoC5/WaveDAC_2.c **** * You may use this file only in accordance with the license, terms, conditions,
  12:Generated_Source\PSoC5/WaveDAC_2.c **** * disclaimers, and limitations in the end user license agreement accompanying
  13:Generated_Source\PSoC5/WaveDAC_2.c **** * the software package with which this file was provided.
  14:Generated_Source\PSoC5/WaveDAC_2.c **** *******************************************************************************/
  15:Generated_Source\PSoC5/WaveDAC_2.c **** 
  16:Generated_Source\PSoC5/WaveDAC_2.c **** #include "WaveDAC_2.h"
  17:Generated_Source\PSoC5/WaveDAC_2.c **** 
  18:Generated_Source\PSoC5/WaveDAC_2.c **** uint8  WaveDAC_2_initVar = 0u;
  19:Generated_Source\PSoC5/WaveDAC_2.c **** 
  20:Generated_Source\PSoC5/WaveDAC_2.c **** const uint8 CYCODE WaveDAC_2_wave1[WaveDAC_2_WAVE1_LENGTH] = { 128u,135u,143u,151u,159u,166u,174u,1
  21:Generated_Source\PSoC5/WaveDAC_2.c **** const uint8 CYCODE WaveDAC_2_wave2[WaveDAC_2_WAVE2_LENGTH] = { 128u,132u,138u,143u,148u,152u,158u,1
  22:Generated_Source\PSoC5/WaveDAC_2.c **** 
  23:Generated_Source\PSoC5/WaveDAC_2.c **** static uint8  WaveDAC_2_Wave1Chan;
  24:Generated_Source\PSoC5/WaveDAC_2.c **** static uint8  WaveDAC_2_Wave2Chan;
  25:Generated_Source\PSoC5/WaveDAC_2.c **** static uint8  WaveDAC_2_Wave1TD;
  26:Generated_Source\PSoC5/WaveDAC_2.c **** static uint8  WaveDAC_2_Wave2TD;
  27:Generated_Source\PSoC5/WaveDAC_2.c **** 
  28:Generated_Source\PSoC5/WaveDAC_2.c **** 
  29:Generated_Source\PSoC5/WaveDAC_2.c **** /*******************************************************************************
  30:Generated_Source\PSoC5/WaveDAC_2.c **** * Function Name: WaveDAC_2_Init
ARM GAS  C:\Users\admin\AppData\Local\Temp\ccZEVLam.s 			page 2


  31:Generated_Source\PSoC5/WaveDAC_2.c **** ********************************************************************************
  32:Generated_Source\PSoC5/WaveDAC_2.c **** *
  33:Generated_Source\PSoC5/WaveDAC_2.c **** * Summary:
  34:Generated_Source\PSoC5/WaveDAC_2.c **** *  Initializes component with parameters set in the customizer.
  35:Generated_Source\PSoC5/WaveDAC_2.c **** *
  36:Generated_Source\PSoC5/WaveDAC_2.c **** * Parameters:  
  37:Generated_Source\PSoC5/WaveDAC_2.c **** *  None
  38:Generated_Source\PSoC5/WaveDAC_2.c **** *
  39:Generated_Source\PSoC5/WaveDAC_2.c **** * Return: 
  40:Generated_Source\PSoC5/WaveDAC_2.c **** *  None
  41:Generated_Source\PSoC5/WaveDAC_2.c **** *
  42:Generated_Source\PSoC5/WaveDAC_2.c **** *******************************************************************************/
  43:Generated_Source\PSoC5/WaveDAC_2.c **** void WaveDAC_2_Init(void) 
  44:Generated_Source\PSoC5/WaveDAC_2.c **** {
  45:Generated_Source\PSoC5/WaveDAC_2.c **** 	WaveDAC_2_VDAC8_Init();
  46:Generated_Source\PSoC5/WaveDAC_2.c **** 	WaveDAC_2_VDAC8_SetSpeed(WaveDAC_2_HIGHSPEED);
  47:Generated_Source\PSoC5/WaveDAC_2.c **** 	WaveDAC_2_VDAC8_SetRange(WaveDAC_2_DAC_RANGE);
  48:Generated_Source\PSoC5/WaveDAC_2.c **** 
  49:Generated_Source\PSoC5/WaveDAC_2.c **** 	#if(WaveDAC_2_DAC_MODE == WaveDAC_2_CURRENT_MODE)
  50:Generated_Source\PSoC5/WaveDAC_2.c **** 		WaveDAC_2_IDAC8_SetPolarity(WaveDAC_2_DAC_POL);
  51:Generated_Source\PSoC5/WaveDAC_2.c **** 	#endif /* WaveDAC_2_DAC_MODE == WaveDAC_2_CURRENT_MODE */
  52:Generated_Source\PSoC5/WaveDAC_2.c **** 
  53:Generated_Source\PSoC5/WaveDAC_2.c **** 	#if(WaveDAC_2_OUT_MODE == WaveDAC_2_BUFFER_MODE)
  54:Generated_Source\PSoC5/WaveDAC_2.c **** 	   WaveDAC_2_BuffAmp_Init();
  55:Generated_Source\PSoC5/WaveDAC_2.c **** 	#endif /* WaveDAC_2_OUT_MODE == WaveDAC_2_BUFFER_MODE */
  56:Generated_Source\PSoC5/WaveDAC_2.c **** 
  57:Generated_Source\PSoC5/WaveDAC_2.c **** 	/* Get the TD Number for the DMA channel 1 and 2   */
  58:Generated_Source\PSoC5/WaveDAC_2.c **** 	WaveDAC_2_Wave1TD = CyDmaTdAllocate();
  59:Generated_Source\PSoC5/WaveDAC_2.c **** 	WaveDAC_2_Wave2TD = CyDmaTdAllocate();
  60:Generated_Source\PSoC5/WaveDAC_2.c **** 	
  61:Generated_Source\PSoC5/WaveDAC_2.c **** 	/* Initialize waveform pointers  */
  62:Generated_Source\PSoC5/WaveDAC_2.c **** 	WaveDAC_2_Wave1Setup(WaveDAC_2_wave1, WaveDAC_2_WAVE1_LENGTH) ;
  63:Generated_Source\PSoC5/WaveDAC_2.c **** 	WaveDAC_2_Wave2Setup(WaveDAC_2_wave2, WaveDAC_2_WAVE2_LENGTH) ;
  64:Generated_Source\PSoC5/WaveDAC_2.c **** 	
  65:Generated_Source\PSoC5/WaveDAC_2.c **** 	/* Initialize the internal clock if one present  */
  66:Generated_Source\PSoC5/WaveDAC_2.c **** 	#if defined(WaveDAC_2_DacClk_PHASE)
  67:Generated_Source\PSoC5/WaveDAC_2.c **** 	   WaveDAC_2_DacClk_SetPhase(WaveDAC_2_CLK_PHASE_0nS);
  68:Generated_Source\PSoC5/WaveDAC_2.c **** 	#endif /* defined(WaveDAC_2_DacClk_PHASE) */
  69:Generated_Source\PSoC5/WaveDAC_2.c **** }
  70:Generated_Source\PSoC5/WaveDAC_2.c **** 
  71:Generated_Source\PSoC5/WaveDAC_2.c **** 
  72:Generated_Source\PSoC5/WaveDAC_2.c **** /*******************************************************************************
  73:Generated_Source\PSoC5/WaveDAC_2.c **** * Function Name: WaveDAC_2_Enable
  74:Generated_Source\PSoC5/WaveDAC_2.c **** ********************************************************************************
  75:Generated_Source\PSoC5/WaveDAC_2.c **** *  
  76:Generated_Source\PSoC5/WaveDAC_2.c **** * Summary: 
  77:Generated_Source\PSoC5/WaveDAC_2.c **** *  Enables the DAC block and DMA operation.
  78:Generated_Source\PSoC5/WaveDAC_2.c **** *
  79:Generated_Source\PSoC5/WaveDAC_2.c **** * Parameters:  
  80:Generated_Source\PSoC5/WaveDAC_2.c **** *  None
  81:Generated_Source\PSoC5/WaveDAC_2.c **** *
  82:Generated_Source\PSoC5/WaveDAC_2.c **** * Return: 
  83:Generated_Source\PSoC5/WaveDAC_2.c **** *  None
  84:Generated_Source\PSoC5/WaveDAC_2.c **** *
  85:Generated_Source\PSoC5/WaveDAC_2.c **** *******************************************************************************/
  86:Generated_Source\PSoC5/WaveDAC_2.c **** void WaveDAC_2_Enable(void) 
  87:Generated_Source\PSoC5/WaveDAC_2.c **** {
ARM GAS  C:\Users\admin\AppData\Local\Temp\ccZEVLam.s 			page 3


  28              		.loc 1 87 0
  29              		.cfi_startproc
  30              		@ args = 0, pretend = 0, frame = 0
  31              		@ frame_needed = 0, uses_anonymous_args = 0
  32 0000 10B5     		push	{r4, lr}
  33              		.cfi_def_cfa_offset 8
  34              		.cfi_offset 4, -8
  35              		.cfi_offset 14, -4
  88:Generated_Source\PSoC5/WaveDAC_2.c **** 	WaveDAC_2_VDAC8_Enable();
  36              		.loc 1 88 0
  37 0002 FFF7FEFF 		bl	WaveDAC_2_VDAC8_Enable
  38              	.LVL0:
  89:Generated_Source\PSoC5/WaveDAC_2.c **** 
  90:Generated_Source\PSoC5/WaveDAC_2.c **** 	#if(WaveDAC_2_OUT_MODE == WaveDAC_2_BUFFER_MODE)
  91:Generated_Source\PSoC5/WaveDAC_2.c **** 	   WaveDAC_2_BuffAmp_Enable();
  92:Generated_Source\PSoC5/WaveDAC_2.c **** 	#endif /* WaveDAC_2_OUT_MODE == WaveDAC_2_BUFFER_MODE */
  93:Generated_Source\PSoC5/WaveDAC_2.c **** 
  94:Generated_Source\PSoC5/WaveDAC_2.c **** 	/* 
  95:Generated_Source\PSoC5/WaveDAC_2.c **** 	* Enable the channel. It is configured to remember the TD value so that
  96:Generated_Source\PSoC5/WaveDAC_2.c **** 	* it can be restored from the place where it has been stopped.
  97:Generated_Source\PSoC5/WaveDAC_2.c **** 	*/
  98:Generated_Source\PSoC5/WaveDAC_2.c **** 	(void)CyDmaChEnable(WaveDAC_2_Wave1Chan, 1u);
  39              		.loc 1 98 0
  40 0006 064C     		ldr	r4, .L3
  41 0008 0121     		movs	r1, #1
  42 000a 2078     		ldrb	r0, [r4]	@ zero_extendqisi2
  43 000c FFF7FEFF 		bl	CyDmaChEnable
  44              	.LVL1:
  99:Generated_Source\PSoC5/WaveDAC_2.c **** 	(void)CyDmaChEnable(WaveDAC_2_Wave2Chan, 1u);
  45              		.loc 1 99 0
  46 0010 0121     		movs	r1, #1
  47 0012 6078     		ldrb	r0, [r4, #1]	@ zero_extendqisi2
  48 0014 FFF7FEFF 		bl	CyDmaChEnable
  49              	.LVL2:
 100:Generated_Source\PSoC5/WaveDAC_2.c **** 	
 101:Generated_Source\PSoC5/WaveDAC_2.c **** 	/* set the initial value */
 102:Generated_Source\PSoC5/WaveDAC_2.c **** 	WaveDAC_2_SetValue(0u);
  50              		.loc 1 102 0
  51 0018 0020     		movs	r0, #0
  52 001a FFF7FEFF 		bl	WaveDAC_2_VDAC8_SetValue
  53              	.LVL3:
  54 001e 10BD     		pop	{r4, pc}
  55              	.L4:
  56              		.align	2
  57              	.L3:
  58 0020 00000000 		.word	.LANCHOR0
  59              		.cfi_endproc
  60              	.LFE1:
  61              		.size	WaveDAC_2_Enable, .-WaveDAC_2_Enable
  62              		.section	.text.WaveDAC_2_Stop,"ax",%progbits
  63              		.align	2
  64              		.global	WaveDAC_2_Stop
  65              		.thumb
  66              		.thumb_func
  67              		.type	WaveDAC_2_Stop, %function
  68              	WaveDAC_2_Stop:
  69              	.LFB4:
ARM GAS  C:\Users\admin\AppData\Local\Temp\ccZEVLam.s 			page 4


 103:Generated_Source\PSoC5/WaveDAC_2.c **** 	
 104:Generated_Source\PSoC5/WaveDAC_2.c **** 	#if(WaveDAC_2_CLOCK_SRC == WaveDAC_2_CLOCK_INT)  	
 105:Generated_Source\PSoC5/WaveDAC_2.c **** 	   WaveDAC_2_DacClk_Start();
 106:Generated_Source\PSoC5/WaveDAC_2.c **** 	#endif /* WaveDAC_2_CLOCK_SRC == WaveDAC_2_CLOCK_INT */
 107:Generated_Source\PSoC5/WaveDAC_2.c **** }
 108:Generated_Source\PSoC5/WaveDAC_2.c **** 
 109:Generated_Source\PSoC5/WaveDAC_2.c **** 
 110:Generated_Source\PSoC5/WaveDAC_2.c **** /*******************************************************************************
 111:Generated_Source\PSoC5/WaveDAC_2.c **** * Function Name: WaveDAC_2_Start
 112:Generated_Source\PSoC5/WaveDAC_2.c **** ********************************************************************************
 113:Generated_Source\PSoC5/WaveDAC_2.c **** *
 114:Generated_Source\PSoC5/WaveDAC_2.c **** * Summary:
 115:Generated_Source\PSoC5/WaveDAC_2.c **** *  The start function initializes the voltage DAC with the default values, 
 116:Generated_Source\PSoC5/WaveDAC_2.c **** *  and sets the power to the given level.  A power level of 0, is the same as 
 117:Generated_Source\PSoC5/WaveDAC_2.c **** *  executing the stop function.
 118:Generated_Source\PSoC5/WaveDAC_2.c **** *
 119:Generated_Source\PSoC5/WaveDAC_2.c **** * Parameters:  
 120:Generated_Source\PSoC5/WaveDAC_2.c **** *  None
 121:Generated_Source\PSoC5/WaveDAC_2.c **** *
 122:Generated_Source\PSoC5/WaveDAC_2.c **** * Return: 
 123:Generated_Source\PSoC5/WaveDAC_2.c **** *  None
 124:Generated_Source\PSoC5/WaveDAC_2.c **** *
 125:Generated_Source\PSoC5/WaveDAC_2.c **** * Reentrant:
 126:Generated_Source\PSoC5/WaveDAC_2.c **** *  No
 127:Generated_Source\PSoC5/WaveDAC_2.c **** *
 128:Generated_Source\PSoC5/WaveDAC_2.c **** *******************************************************************************/
 129:Generated_Source\PSoC5/WaveDAC_2.c **** void WaveDAC_2_Start(void) 
 130:Generated_Source\PSoC5/WaveDAC_2.c **** {
 131:Generated_Source\PSoC5/WaveDAC_2.c **** 	/* If not Initialized then initialize all required hardware and software */
 132:Generated_Source\PSoC5/WaveDAC_2.c **** 	if(WaveDAC_2_initVar == 0u)
 133:Generated_Source\PSoC5/WaveDAC_2.c **** 	{
 134:Generated_Source\PSoC5/WaveDAC_2.c **** 		WaveDAC_2_Init();
 135:Generated_Source\PSoC5/WaveDAC_2.c **** 		WaveDAC_2_initVar = 1u;
 136:Generated_Source\PSoC5/WaveDAC_2.c **** 	}
 137:Generated_Source\PSoC5/WaveDAC_2.c **** 	
 138:Generated_Source\PSoC5/WaveDAC_2.c **** 	WaveDAC_2_Enable();
 139:Generated_Source\PSoC5/WaveDAC_2.c **** }
 140:Generated_Source\PSoC5/WaveDAC_2.c **** 
 141:Generated_Source\PSoC5/WaveDAC_2.c **** 
 142:Generated_Source\PSoC5/WaveDAC_2.c **** /*******************************************************************************
 143:Generated_Source\PSoC5/WaveDAC_2.c **** * Function Name: WaveDAC_2_StartEx
 144:Generated_Source\PSoC5/WaveDAC_2.c **** ********************************************************************************
 145:Generated_Source\PSoC5/WaveDAC_2.c **** *
 146:Generated_Source\PSoC5/WaveDAC_2.c **** * Summary:
 147:Generated_Source\PSoC5/WaveDAC_2.c **** *  The StartEx function sets pointers and sizes for both waveforms
 148:Generated_Source\PSoC5/WaveDAC_2.c **** *  and then starts the component.
 149:Generated_Source\PSoC5/WaveDAC_2.c **** *
 150:Generated_Source\PSoC5/WaveDAC_2.c **** * Parameters:  
 151:Generated_Source\PSoC5/WaveDAC_2.c **** *   uint8 * wavePtr1:     Pointer to the waveform 1 array.
 152:Generated_Source\PSoC5/WaveDAC_2.c **** *   uint16  sampleSize1:  The amount of samples in the waveform 1.
 153:Generated_Source\PSoC5/WaveDAC_2.c **** *   uint8 * wavePtr2:     Pointer to the waveform 2 array.
 154:Generated_Source\PSoC5/WaveDAC_2.c **** *   uint16  sampleSize2:  The amount of samples in the waveform 2.
 155:Generated_Source\PSoC5/WaveDAC_2.c **** *
 156:Generated_Source\PSoC5/WaveDAC_2.c **** * Return: 
 157:Generated_Source\PSoC5/WaveDAC_2.c **** *  None
 158:Generated_Source\PSoC5/WaveDAC_2.c **** *
 159:Generated_Source\PSoC5/WaveDAC_2.c **** * Reentrant:
ARM GAS  C:\Users\admin\AppData\Local\Temp\ccZEVLam.s 			page 5


 160:Generated_Source\PSoC5/WaveDAC_2.c **** *  No
 161:Generated_Source\PSoC5/WaveDAC_2.c **** *
 162:Generated_Source\PSoC5/WaveDAC_2.c **** *******************************************************************************/
 163:Generated_Source\PSoC5/WaveDAC_2.c **** void WaveDAC_2_StartEx(const uint8 * wavePtr1, uint16 sampleSize1, const uint8 * wavePtr2, uint16 s
 164:Generated_Source\PSoC5/WaveDAC_2.c **** 
 165:Generated_Source\PSoC5/WaveDAC_2.c **** {
 166:Generated_Source\PSoC5/WaveDAC_2.c **** 	WaveDAC_2_Wave1Setup(wavePtr1, sampleSize1);
 167:Generated_Source\PSoC5/WaveDAC_2.c **** 	WaveDAC_2_Wave2Setup(wavePtr2, sampleSize2);
 168:Generated_Source\PSoC5/WaveDAC_2.c **** 	WaveDAC_2_Start();
 169:Generated_Source\PSoC5/WaveDAC_2.c **** }
 170:Generated_Source\PSoC5/WaveDAC_2.c **** 
 171:Generated_Source\PSoC5/WaveDAC_2.c **** 
 172:Generated_Source\PSoC5/WaveDAC_2.c **** /*******************************************************************************
 173:Generated_Source\PSoC5/WaveDAC_2.c **** * Function Name: WaveDAC_2_Stop
 174:Generated_Source\PSoC5/WaveDAC_2.c **** ********************************************************************************
 175:Generated_Source\PSoC5/WaveDAC_2.c **** *
 176:Generated_Source\PSoC5/WaveDAC_2.c **** * Summary:
 177:Generated_Source\PSoC5/WaveDAC_2.c **** *  Stops the clock (if internal), disables the DMA channels
 178:Generated_Source\PSoC5/WaveDAC_2.c **** *  and powers down the DAC.
 179:Generated_Source\PSoC5/WaveDAC_2.c **** *
 180:Generated_Source\PSoC5/WaveDAC_2.c **** * Parameters:  
 181:Generated_Source\PSoC5/WaveDAC_2.c **** *  None  
 182:Generated_Source\PSoC5/WaveDAC_2.c **** *
 183:Generated_Source\PSoC5/WaveDAC_2.c **** * Return: 
 184:Generated_Source\PSoC5/WaveDAC_2.c **** *  None
 185:Generated_Source\PSoC5/WaveDAC_2.c **** *
 186:Generated_Source\PSoC5/WaveDAC_2.c **** *******************************************************************************/
 187:Generated_Source\PSoC5/WaveDAC_2.c **** void WaveDAC_2_Stop(void) 
 188:Generated_Source\PSoC5/WaveDAC_2.c **** {
  70              		.loc 1 188 0
  71              		.cfi_startproc
  72              		@ args = 0, pretend = 0, frame = 0
  73              		@ frame_needed = 0, uses_anonymous_args = 0
  74 0000 10B5     		push	{r4, lr}
  75              		.cfi_def_cfa_offset 8
  76              		.cfi_offset 4, -8
  77              		.cfi_offset 14, -4
 189:Generated_Source\PSoC5/WaveDAC_2.c **** 	/* Turn off internal clock, if one present */
 190:Generated_Source\PSoC5/WaveDAC_2.c **** 	#if(WaveDAC_2_CLOCK_SRC == WaveDAC_2_CLOCK_INT)  	
 191:Generated_Source\PSoC5/WaveDAC_2.c **** 	   WaveDAC_2_DacClk_Stop();
 192:Generated_Source\PSoC5/WaveDAC_2.c **** 	#endif /* WaveDAC_2_CLOCK_SRC == WaveDAC_2_CLOCK_INT */
 193:Generated_Source\PSoC5/WaveDAC_2.c **** 	
 194:Generated_Source\PSoC5/WaveDAC_2.c **** 	/* Disble DMA channels */
 195:Generated_Source\PSoC5/WaveDAC_2.c **** 	(void)CyDmaChDisable(WaveDAC_2_Wave1Chan);
  78              		.loc 1 195 0
  79 0002 054C     		ldr	r4, .L7
  80 0004 2078     		ldrb	r0, [r4]	@ zero_extendqisi2
  81 0006 FFF7FEFF 		bl	CyDmaChDisable
  82              	.LVL4:
 196:Generated_Source\PSoC5/WaveDAC_2.c **** 	(void)CyDmaChDisable(WaveDAC_2_Wave2Chan);
  83              		.loc 1 196 0
  84 000a 6078     		ldrb	r0, [r4, #1]	@ zero_extendqisi2
  85 000c FFF7FEFF 		bl	CyDmaChDisable
  86              	.LVL5:
 197:Generated_Source\PSoC5/WaveDAC_2.c **** 
 198:Generated_Source\PSoC5/WaveDAC_2.c **** 	/* Disable power to DAC */
 199:Generated_Source\PSoC5/WaveDAC_2.c **** 	WaveDAC_2_VDAC8_Stop();
ARM GAS  C:\Users\admin\AppData\Local\Temp\ccZEVLam.s 			page 6


  87              		.loc 1 199 0
  88 0010 FFF7FEFF 		bl	WaveDAC_2_VDAC8_Stop
  89              	.LVL6:
  90 0014 10BD     		pop	{r4, pc}
  91              	.L8:
  92 0016 00BF     		.align	2
  93              	.L7:
  94 0018 00000000 		.word	.LANCHOR0
  95              		.cfi_endproc
  96              	.LFE4:
  97              		.size	WaveDAC_2_Stop, .-WaveDAC_2_Stop
  98              		.section	.text.WaveDAC_2_Wave1Setup,"ax",%progbits
  99              		.align	2
 100              		.global	WaveDAC_2_Wave1Setup
 101              		.thumb
 102              		.thumb_func
 103              		.type	WaveDAC_2_Wave1Setup, %function
 104              	WaveDAC_2_Wave1Setup:
 105              	.LFB5:
 200:Generated_Source\PSoC5/WaveDAC_2.c **** }
 201:Generated_Source\PSoC5/WaveDAC_2.c **** 
 202:Generated_Source\PSoC5/WaveDAC_2.c **** 
 203:Generated_Source\PSoC5/WaveDAC_2.c **** /*******************************************************************************
 204:Generated_Source\PSoC5/WaveDAC_2.c **** * Function Name: WaveDAC_2_Wave1Setup
 205:Generated_Source\PSoC5/WaveDAC_2.c **** ********************************************************************************
 206:Generated_Source\PSoC5/WaveDAC_2.c **** *
 207:Generated_Source\PSoC5/WaveDAC_2.c **** * Summary:
 208:Generated_Source\PSoC5/WaveDAC_2.c **** *  Sets pointer and size for waveform 1.                                    
 209:Generated_Source\PSoC5/WaveDAC_2.c **** *
 210:Generated_Source\PSoC5/WaveDAC_2.c **** * Parameters:  
 211:Generated_Source\PSoC5/WaveDAC_2.c **** *  uint8 * WavePtr:     Pointer to the waveform array.
 212:Generated_Source\PSoC5/WaveDAC_2.c **** *  uint16  SampleSize:  The amount of samples in the waveform.
 213:Generated_Source\PSoC5/WaveDAC_2.c **** *
 214:Generated_Source\PSoC5/WaveDAC_2.c **** * Return: 
 215:Generated_Source\PSoC5/WaveDAC_2.c **** *  None 
 216:Generated_Source\PSoC5/WaveDAC_2.c **** *
 217:Generated_Source\PSoC5/WaveDAC_2.c **** *******************************************************************************/
 218:Generated_Source\PSoC5/WaveDAC_2.c **** void WaveDAC_2_Wave1Setup(const uint8 * wavePtr, uint16 sampleSize)
 219:Generated_Source\PSoC5/WaveDAC_2.c **** 
 220:Generated_Source\PSoC5/WaveDAC_2.c **** {
 106              		.loc 1 220 0
 107              		.cfi_startproc
 108              		@ args = 0, pretend = 0, frame = 0
 109              		@ frame_needed = 0, uses_anonymous_args = 0
 110              	.LVL7:
 111 0000 70B5     		push	{r4, r5, r6, lr}
 112              		.cfi_def_cfa_offset 16
 113              		.cfi_offset 4, -16
 114              		.cfi_offset 5, -12
 115              		.cfi_offset 6, -8
 116              		.cfi_offset 14, -4
 117 0002 0546     		mov	r5, r0
 118 0004 0E46     		mov	r6, r1
 221:Generated_Source\PSoC5/WaveDAC_2.c **** 	#if (CY_PSOC3)
 222:Generated_Source\PSoC5/WaveDAC_2.c **** 		uint16 memoryType; /* determining the source memory type */
 223:Generated_Source\PSoC5/WaveDAC_2.c **** 		memoryType = (WaveDAC_2_HI16FLASHPTR == HI16(wavePtr)) ? HI16(CYDEV_FLS_BASE) : HI16(CYDEV_SRAM_B
 224:Generated_Source\PSoC5/WaveDAC_2.c **** 		
ARM GAS  C:\Users\admin\AppData\Local\Temp\ccZEVLam.s 			page 7


 225:Generated_Source\PSoC5/WaveDAC_2.c **** 		WaveDAC_2_Wave1Chan = WaveDAC_2_Wave1_DMA_DmaInitialize(
 226:Generated_Source\PSoC5/WaveDAC_2.c **** 		WaveDAC_2_Wave1_DMA_BYTES_PER_BURST, WaveDAC_2_Wave1_DMA_REQUEST_PER_BURST,
 227:Generated_Source\PSoC5/WaveDAC_2.c **** 		memoryType, HI16(CYDEV_PERIPH_BASE));
 228:Generated_Source\PSoC5/WaveDAC_2.c **** 	#else /* PSoC 5 */
 229:Generated_Source\PSoC5/WaveDAC_2.c **** 		WaveDAC_2_Wave1Chan = WaveDAC_2_Wave1_DMA_DmaInitialize(
 119              		.loc 1 229 0
 120 0006 4FF48043 		mov	r3, #16384
 121 000a 020C     		lsrs	r2, r0, #16
 122 000c 0121     		movs	r1, #1
 123              	.LVL8:
 124 000e 0846     		mov	r0, r1
 125              	.LVL9:
 126 0010 FFF7FEFF 		bl	WaveDAC_2_Wave1_DMA_DmaInitialize
 127              	.LVL10:
 128 0014 094C     		ldr	r4, .L11
 129 0016 2070     		strb	r0, [r4]
 230:Generated_Source\PSoC5/WaveDAC_2.c **** 		WaveDAC_2_Wave1_DMA_BYTES_PER_BURST, WaveDAC_2_Wave1_DMA_REQUEST_PER_BURST,
 231:Generated_Source\PSoC5/WaveDAC_2.c **** 		HI16(wavePtr), HI16(WaveDAC_2_DAC8__D));
 232:Generated_Source\PSoC5/WaveDAC_2.c **** 	#endif /* CY_PSOC3 */
 233:Generated_Source\PSoC5/WaveDAC_2.c **** 	
 234:Generated_Source\PSoC5/WaveDAC_2.c **** 	/*
 235:Generated_Source\PSoC5/WaveDAC_2.c **** 	* TD is looping on itself. 
 236:Generated_Source\PSoC5/WaveDAC_2.c ****     * Increment the source address, but not the destination address. 
 237:Generated_Source\PSoC5/WaveDAC_2.c **** 	*/
 238:Generated_Source\PSoC5/WaveDAC_2.c **** 	(void)CyDmaTdSetConfiguration(WaveDAC_2_Wave1TD, sampleSize, WaveDAC_2_Wave1TD, 
 130              		.loc 1 238 0
 131 0018 A078     		ldrb	r0, [r4, #2]	@ zero_extendqisi2
 132 001a 0123     		movs	r3, #1
 133 001c 0246     		mov	r2, r0
 134 001e 3146     		mov	r1, r6
 135 0020 FFF7FEFF 		bl	CyDmaTdSetConfiguration
 136              	.LVL11:
 239:Generated_Source\PSoC5/WaveDAC_2.c ****                                     (uint8)CY_DMA_TD_INC_SRC_ADR | (uint8)WaveDAC_2_Wave1_DMA__TD_T
 240:Generated_Source\PSoC5/WaveDAC_2.c **** 	
 241:Generated_Source\PSoC5/WaveDAC_2.c **** 	/* Set the TD source and destination address */
 242:Generated_Source\PSoC5/WaveDAC_2.c **** 	(void)CyDmaTdSetAddress(WaveDAC_2_Wave1TD, LO16((uint32)wavePtr), LO16(WaveDAC_2_DAC8__D));
 137              		.loc 1 242 0
 138 0024 4FF4B742 		mov	r2, #23424
 139 0028 A9B2     		uxth	r1, r5
 140 002a A078     		ldrb	r0, [r4, #2]	@ zero_extendqisi2
 141 002c FFF7FEFF 		bl	CyDmaTdSetAddress
 142              	.LVL12:
 243:Generated_Source\PSoC5/WaveDAC_2.c **** 	
 244:Generated_Source\PSoC5/WaveDAC_2.c **** 	/* Associate the TD with the channel */
 245:Generated_Source\PSoC5/WaveDAC_2.c **** 	(void)CyDmaChSetInitialTd(WaveDAC_2_Wave1Chan, WaveDAC_2_Wave1TD);
 143              		.loc 1 245 0
 144 0030 A178     		ldrb	r1, [r4, #2]	@ zero_extendqisi2
 145 0032 2078     		ldrb	r0, [r4]	@ zero_extendqisi2
 146 0034 FFF7FEFF 		bl	CyDmaChSetInitialTd
 147              	.LVL13:
 148 0038 70BD     		pop	{r4, r5, r6, pc}
 149              	.LVL14:
 150              	.L12:
 151 003a 00BF     		.align	2
 152              	.L11:
 153 003c 00000000 		.word	.LANCHOR0
 154              		.cfi_endproc
ARM GAS  C:\Users\admin\AppData\Local\Temp\ccZEVLam.s 			page 8


 155              	.LFE5:
 156              		.size	WaveDAC_2_Wave1Setup, .-WaveDAC_2_Wave1Setup
 157              		.section	.text.WaveDAC_2_Wave2Setup,"ax",%progbits
 158              		.align	2
 159              		.global	WaveDAC_2_Wave2Setup
 160              		.thumb
 161              		.thumb_func
 162              		.type	WaveDAC_2_Wave2Setup, %function
 163              	WaveDAC_2_Wave2Setup:
 164              	.LFB6:
 246:Generated_Source\PSoC5/WaveDAC_2.c **** }
 247:Generated_Source\PSoC5/WaveDAC_2.c **** 
 248:Generated_Source\PSoC5/WaveDAC_2.c **** 
 249:Generated_Source\PSoC5/WaveDAC_2.c **** /*******************************************************************************
 250:Generated_Source\PSoC5/WaveDAC_2.c **** * Function Name: WaveDAC_2_Wave2Setup
 251:Generated_Source\PSoC5/WaveDAC_2.c **** ********************************************************************************
 252:Generated_Source\PSoC5/WaveDAC_2.c **** *
 253:Generated_Source\PSoC5/WaveDAC_2.c **** * Summary:
 254:Generated_Source\PSoC5/WaveDAC_2.c **** *  Sets pointer and size for waveform 2.                                    
 255:Generated_Source\PSoC5/WaveDAC_2.c **** *
 256:Generated_Source\PSoC5/WaveDAC_2.c **** * Parameters:  
 257:Generated_Source\PSoC5/WaveDAC_2.c **** *  uint8 * WavePtr:     Pointer to the waveform array.
 258:Generated_Source\PSoC5/WaveDAC_2.c **** *  uint16  SampleSize:  The amount of samples in the waveform.
 259:Generated_Source\PSoC5/WaveDAC_2.c **** *
 260:Generated_Source\PSoC5/WaveDAC_2.c **** * Return: 
 261:Generated_Source\PSoC5/WaveDAC_2.c **** *  None
 262:Generated_Source\PSoC5/WaveDAC_2.c **** *
 263:Generated_Source\PSoC5/WaveDAC_2.c **** *******************************************************************************/
 264:Generated_Source\PSoC5/WaveDAC_2.c **** void WaveDAC_2_Wave2Setup(const uint8 * wavePtr, uint16 sampleSize)
 265:Generated_Source\PSoC5/WaveDAC_2.c ****  
 266:Generated_Source\PSoC5/WaveDAC_2.c **** {
 165              		.loc 1 266 0
 166              		.cfi_startproc
 167              		@ args = 0, pretend = 0, frame = 0
 168              		@ frame_needed = 0, uses_anonymous_args = 0
 169              	.LVL15:
 170 0000 70B5     		push	{r4, r5, r6, lr}
 171              		.cfi_def_cfa_offset 16
 172              		.cfi_offset 4, -16
 173              		.cfi_offset 5, -12
 174              		.cfi_offset 6, -8
 175              		.cfi_offset 14, -4
 176 0002 0546     		mov	r5, r0
 177 0004 0E46     		mov	r6, r1
 267:Generated_Source\PSoC5/WaveDAC_2.c **** 	#if (CY_PSOC3)
 268:Generated_Source\PSoC5/WaveDAC_2.c **** 		uint16 memoryType; /* determining the source memory type */
 269:Generated_Source\PSoC5/WaveDAC_2.c **** 		memoryType = (WaveDAC_2_HI16FLASHPTR == HI16(wavePtr)) ? HI16(CYDEV_FLS_BASE) : HI16(CYDEV_SRAM_B
 270:Generated_Source\PSoC5/WaveDAC_2.c **** 			
 271:Generated_Source\PSoC5/WaveDAC_2.c **** 		WaveDAC_2_Wave2Chan = WaveDAC_2_Wave2_DMA_DmaInitialize(
 272:Generated_Source\PSoC5/WaveDAC_2.c **** 		WaveDAC_2_Wave2_DMA_BYTES_PER_BURST, WaveDAC_2_Wave2_DMA_REQUEST_PER_BURST,
 273:Generated_Source\PSoC5/WaveDAC_2.c **** 		memoryType, HI16(CYDEV_PERIPH_BASE));
 274:Generated_Source\PSoC5/WaveDAC_2.c **** 	#else /* PSoC 5 */
 275:Generated_Source\PSoC5/WaveDAC_2.c **** 		WaveDAC_2_Wave2Chan = WaveDAC_2_Wave2_DMA_DmaInitialize(
 178              		.loc 1 275 0
 179 0006 4FF48043 		mov	r3, #16384
 180 000a 020C     		lsrs	r2, r0, #16
 181 000c 0121     		movs	r1, #1
ARM GAS  C:\Users\admin\AppData\Local\Temp\ccZEVLam.s 			page 9


 182              	.LVL16:
 183 000e 0846     		mov	r0, r1
 184              	.LVL17:
 185 0010 FFF7FEFF 		bl	WaveDAC_2_Wave2_DMA_DmaInitialize
 186              	.LVL18:
 187 0014 094C     		ldr	r4, .L15
 188 0016 6070     		strb	r0, [r4, #1]
 276:Generated_Source\PSoC5/WaveDAC_2.c **** 		WaveDAC_2_Wave2_DMA_BYTES_PER_BURST, WaveDAC_2_Wave2_DMA_REQUEST_PER_BURST,
 277:Generated_Source\PSoC5/WaveDAC_2.c **** 		HI16(wavePtr), HI16(WaveDAC_2_DAC8__D));
 278:Generated_Source\PSoC5/WaveDAC_2.c **** 	#endif /* CY_PSOC3 */
 279:Generated_Source\PSoC5/WaveDAC_2.c **** 	
 280:Generated_Source\PSoC5/WaveDAC_2.c **** 	/*
 281:Generated_Source\PSoC5/WaveDAC_2.c **** 	* TD is looping on itself. 
 282:Generated_Source\PSoC5/WaveDAC_2.c **** 	* Increment the source address, but not the destination address. 
 283:Generated_Source\PSoC5/WaveDAC_2.c **** 	*/
 284:Generated_Source\PSoC5/WaveDAC_2.c **** 	(void)CyDmaTdSetConfiguration(WaveDAC_2_Wave2TD, sampleSize, WaveDAC_2_Wave2TD, 
 189              		.loc 1 284 0
 190 0018 E078     		ldrb	r0, [r4, #3]	@ zero_extendqisi2
 191 001a 0123     		movs	r3, #1
 192 001c 0246     		mov	r2, r0
 193 001e 3146     		mov	r1, r6
 194 0020 FFF7FEFF 		bl	CyDmaTdSetConfiguration
 195              	.LVL19:
 285:Generated_Source\PSoC5/WaveDAC_2.c ****                                     (uint8)CY_DMA_TD_INC_SRC_ADR | (uint8)WaveDAC_2_Wave2_DMA__TD_T
 286:Generated_Source\PSoC5/WaveDAC_2.c **** 	
 287:Generated_Source\PSoC5/WaveDAC_2.c **** 	/* Set the TD source and destination address */
 288:Generated_Source\PSoC5/WaveDAC_2.c **** 	(void)CyDmaTdSetAddress(WaveDAC_2_Wave2TD, LO16((uint32)wavePtr), LO16(WaveDAC_2_DAC8__D));
 196              		.loc 1 288 0
 197 0024 4FF4B742 		mov	r2, #23424
 198 0028 A9B2     		uxth	r1, r5
 199 002a E078     		ldrb	r0, [r4, #3]	@ zero_extendqisi2
 200 002c FFF7FEFF 		bl	CyDmaTdSetAddress
 201              	.LVL20:
 289:Generated_Source\PSoC5/WaveDAC_2.c **** 	
 290:Generated_Source\PSoC5/WaveDAC_2.c **** 	/* Associate the TD with the channel */
 291:Generated_Source\PSoC5/WaveDAC_2.c **** 	(void)CyDmaChSetInitialTd(WaveDAC_2_Wave2Chan, WaveDAC_2_Wave2TD);
 202              		.loc 1 291 0
 203 0030 E178     		ldrb	r1, [r4, #3]	@ zero_extendqisi2
 204 0032 6078     		ldrb	r0, [r4, #1]	@ zero_extendqisi2
 205 0034 FFF7FEFF 		bl	CyDmaChSetInitialTd
 206              	.LVL21:
 207 0038 70BD     		pop	{r4, r5, r6, pc}
 208              	.LVL22:
 209              	.L16:
 210 003a 00BF     		.align	2
 211              	.L15:
 212 003c 00000000 		.word	.LANCHOR0
 213              		.cfi_endproc
 214              	.LFE6:
 215              		.size	WaveDAC_2_Wave2Setup, .-WaveDAC_2_Wave2Setup
 216              		.section	.text.WaveDAC_2_Init,"ax",%progbits
 217              		.align	2
 218              		.global	WaveDAC_2_Init
 219              		.thumb
 220              		.thumb_func
 221              		.type	WaveDAC_2_Init, %function
 222              	WaveDAC_2_Init:
ARM GAS  C:\Users\admin\AppData\Local\Temp\ccZEVLam.s 			page 10


 223              	.LFB0:
  44:Generated_Source\PSoC5/WaveDAC_2.c **** 	WaveDAC_2_VDAC8_Init();
 224              		.loc 1 44 0
 225              		.cfi_startproc
 226              		@ args = 0, pretend = 0, frame = 0
 227              		@ frame_needed = 0, uses_anonymous_args = 0
 228 0000 10B5     		push	{r4, lr}
 229              		.cfi_def_cfa_offset 8
 230              		.cfi_offset 4, -8
 231              		.cfi_offset 14, -4
  45:Generated_Source\PSoC5/WaveDAC_2.c **** 	WaveDAC_2_VDAC8_SetSpeed(WaveDAC_2_HIGHSPEED);
 232              		.loc 1 45 0
 233 0002 FFF7FEFF 		bl	WaveDAC_2_VDAC8_Init
 234              	.LVL23:
  46:Generated_Source\PSoC5/WaveDAC_2.c **** 	WaveDAC_2_VDAC8_SetRange(WaveDAC_2_DAC_RANGE);
 235              		.loc 1 46 0
 236 0006 0220     		movs	r0, #2
 237 0008 FFF7FEFF 		bl	WaveDAC_2_VDAC8_SetSpeed
 238              	.LVL24:
  47:Generated_Source\PSoC5/WaveDAC_2.c **** 
 239              		.loc 1 47 0
 240 000c 0420     		movs	r0, #4
 241 000e FFF7FEFF 		bl	WaveDAC_2_VDAC8_SetRange
 242              	.LVL25:
  58:Generated_Source\PSoC5/WaveDAC_2.c **** 	WaveDAC_2_Wave2TD = CyDmaTdAllocate();
 243              		.loc 1 58 0
 244 0012 FFF7FEFF 		bl	CyDmaTdAllocate
 245              	.LVL26:
 246 0016 074C     		ldr	r4, .L19
 247 0018 A070     		strb	r0, [r4, #2]
  59:Generated_Source\PSoC5/WaveDAC_2.c **** 	
 248              		.loc 1 59 0
 249 001a FFF7FEFF 		bl	CyDmaTdAllocate
 250              	.LVL27:
 251 001e E070     		strb	r0, [r4, #3]
  62:Generated_Source\PSoC5/WaveDAC_2.c **** 	WaveDAC_2_Wave2Setup(WaveDAC_2_wave2, WaveDAC_2_WAVE2_LENGTH) ;
 252              		.loc 1 62 0
 253 0020 054C     		ldr	r4, .L19+4
 254 0022 6421     		movs	r1, #100
 255 0024 2046     		mov	r0, r4
 256 0026 FFF7FEFF 		bl	WaveDAC_2_Wave1Setup
 257              	.LVL28:
  63:Generated_Source\PSoC5/WaveDAC_2.c **** 	
 258              		.loc 1 63 0
 259 002a 6421     		movs	r1, #100
 260 002c 6018     		adds	r0, r4, r1
 261 002e FFF7FEFF 		bl	WaveDAC_2_Wave2Setup
 262              	.LVL29:
 263 0032 10BD     		pop	{r4, pc}
 264              	.L20:
 265              		.align	2
 266              	.L19:
 267 0034 00000000 		.word	.LANCHOR0
 268 0038 00000000 		.word	.LANCHOR1
 269              		.cfi_endproc
 270              	.LFE0:
 271              		.size	WaveDAC_2_Init, .-WaveDAC_2_Init
ARM GAS  C:\Users\admin\AppData\Local\Temp\ccZEVLam.s 			page 11


 272              		.section	.text.WaveDAC_2_Start,"ax",%progbits
 273              		.align	2
 274              		.global	WaveDAC_2_Start
 275              		.thumb
 276              		.thumb_func
 277              		.type	WaveDAC_2_Start, %function
 278              	WaveDAC_2_Start:
 279              	.LFB2:
 130:Generated_Source\PSoC5/WaveDAC_2.c **** 	/* If not Initialized then initialize all required hardware and software */
 280              		.loc 1 130 0
 281              		.cfi_startproc
 282              		@ args = 0, pretend = 0, frame = 0
 283              		@ frame_needed = 0, uses_anonymous_args = 0
 284 0000 08B5     		push	{r3, lr}
 285              		.cfi_def_cfa_offset 8
 286              		.cfi_offset 3, -8
 287              		.cfi_offset 14, -4
 132:Generated_Source\PSoC5/WaveDAC_2.c **** 	{
 288              		.loc 1 132 0
 289 0002 054B     		ldr	r3, .L24
 290 0004 1B79     		ldrb	r3, [r3, #4]	@ zero_extendqisi2
 291 0006 23B9     		cbnz	r3, .L22
 134:Generated_Source\PSoC5/WaveDAC_2.c **** 		WaveDAC_2_initVar = 1u;
 292              		.loc 1 134 0
 293 0008 FFF7FEFF 		bl	WaveDAC_2_Init
 294              	.LVL30:
 135:Generated_Source\PSoC5/WaveDAC_2.c **** 	}
 295              		.loc 1 135 0
 296 000c 0122     		movs	r2, #1
 297 000e 024B     		ldr	r3, .L24
 298 0010 1A71     		strb	r2, [r3, #4]
 299              	.L22:
 138:Generated_Source\PSoC5/WaveDAC_2.c **** }
 300              		.loc 1 138 0
 301 0012 FFF7FEFF 		bl	WaveDAC_2_Enable
 302              	.LVL31:
 303 0016 08BD     		pop	{r3, pc}
 304              	.L25:
 305              		.align	2
 306              	.L24:
 307 0018 00000000 		.word	.LANCHOR0
 308              		.cfi_endproc
 309              	.LFE2:
 310              		.size	WaveDAC_2_Start, .-WaveDAC_2_Start
 311              		.section	.text.WaveDAC_2_StartEx,"ax",%progbits
 312              		.align	2
 313              		.global	WaveDAC_2_StartEx
 314              		.thumb
 315              		.thumb_func
 316              		.type	WaveDAC_2_StartEx, %function
 317              	WaveDAC_2_StartEx:
 318              	.LFB3:
 165:Generated_Source\PSoC5/WaveDAC_2.c **** 	WaveDAC_2_Wave1Setup(wavePtr1, sampleSize1);
 319              		.loc 1 165 0
 320              		.cfi_startproc
 321              		@ args = 0, pretend = 0, frame = 0
 322              		@ frame_needed = 0, uses_anonymous_args = 0
ARM GAS  C:\Users\admin\AppData\Local\Temp\ccZEVLam.s 			page 12


 323              	.LVL32:
 324 0000 38B5     		push	{r3, r4, r5, lr}
 325              		.cfi_def_cfa_offset 16
 326              		.cfi_offset 3, -16
 327              		.cfi_offset 4, -12
 328              		.cfi_offset 5, -8
 329              		.cfi_offset 14, -4
 330 0002 1446     		mov	r4, r2
 331 0004 1D46     		mov	r5, r3
 166:Generated_Source\PSoC5/WaveDAC_2.c **** 	WaveDAC_2_Wave2Setup(wavePtr2, sampleSize2);
 332              		.loc 1 166 0
 333 0006 FFF7FEFF 		bl	WaveDAC_2_Wave1Setup
 334              	.LVL33:
 167:Generated_Source\PSoC5/WaveDAC_2.c **** 	WaveDAC_2_Start();
 335              		.loc 1 167 0
 336 000a 2946     		mov	r1, r5
 337 000c 2046     		mov	r0, r4
 338 000e FFF7FEFF 		bl	WaveDAC_2_Wave2Setup
 339              	.LVL34:
 168:Generated_Source\PSoC5/WaveDAC_2.c **** }
 340              		.loc 1 168 0
 341 0012 FFF7FEFF 		bl	WaveDAC_2_Start
 342              	.LVL35:
 343 0016 38BD     		pop	{r3, r4, r5, pc}
 344              		.cfi_endproc
 345              	.LFE3:
 346              		.size	WaveDAC_2_StartEx, .-WaveDAC_2_StartEx
 347              		.global	WaveDAC_2_wave2
 348              		.global	WaveDAC_2_wave1
 349              		.global	WaveDAC_2_initVar
 350              		.section	.rodata
 351              		.align	2
 352              		.set	.LANCHOR1,. + 0
 353              		.type	WaveDAC_2_wave1, %object
 354              		.size	WaveDAC_2_wave1, 100
 355              	WaveDAC_2_wave1:
 356 0000 80       		.byte	-128
 357 0001 87       		.byte	-121
 358 0002 8F       		.byte	-113
 359 0003 97       		.byte	-105
 360 0004 9F       		.byte	-97
 361 0005 A6       		.byte	-90
 362 0006 AE       		.byte	-82
 363 0007 B5       		.byte	-75
 364 0008 BC       		.byte	-68
 365 0009 C2       		.byte	-62
 366 000a C9       		.byte	-55
 367 000b CF       		.byte	-49
 368 000c D5       		.byte	-43
 369 000d DB       		.byte	-37
 370 000e E0       		.byte	-32
 371 000f E5       		.byte	-27
 372 0010 E9       		.byte	-23
 373 0011 ED       		.byte	-19
 374 0012 F1       		.byte	-15
 375 0013 F4       		.byte	-12
 376 0014 F6       		.byte	-10
ARM GAS  C:\Users\admin\AppData\Local\Temp\ccZEVLam.s 			page 13


 377 0015 F9       		.byte	-7
 378 0016 FA       		.byte	-6
 379 0017 FC       		.byte	-4
 380 0018 FC       		.byte	-4
 381 0019 FC       		.byte	-4
 382 001a FC       		.byte	-4
 383 001b FC       		.byte	-4
 384 001c FA       		.byte	-6
 385 001d F9       		.byte	-7
 386 001e F6       		.byte	-10
 387 001f F4       		.byte	-12
 388 0020 F1       		.byte	-15
 389 0021 ED       		.byte	-19
 390 0022 E9       		.byte	-23
 391 0023 E5       		.byte	-27
 392 0024 E0       		.byte	-32
 393 0025 DB       		.byte	-37
 394 0026 D5       		.byte	-43
 395 0027 CF       		.byte	-49
 396 0028 C9       		.byte	-55
 397 0029 C2       		.byte	-62
 398 002a BC       		.byte	-68
 399 002b B5       		.byte	-75
 400 002c AE       		.byte	-82
 401 002d A6       		.byte	-90
 402 002e 9F       		.byte	-97
 403 002f 97       		.byte	-105
 404 0030 8F       		.byte	-113
 405 0031 87       		.byte	-121
 406 0032 80       		.byte	-128
 407 0033 78       		.byte	120
 408 0034 70       		.byte	112
 409 0035 68       		.byte	104
 410 0036 60       		.byte	96
 411 0037 59       		.byte	89
 412 0038 51       		.byte	81
 413 0039 4A       		.byte	74
 414 003a 43       		.byte	67
 415 003b 3D       		.byte	61
 416 003c 36       		.byte	54
 417 003d 30       		.byte	48
 418 003e 2A       		.byte	42
 419 003f 24       		.byte	36
 420 0040 1F       		.byte	31
 421 0041 1A       		.byte	26
 422 0042 16       		.byte	22
 423 0043 12       		.byte	18
 424 0044 0E       		.byte	14
 425 0045 0B       		.byte	11
 426 0046 09       		.byte	9
 427 0047 06       		.byte	6
 428 0048 05       		.byte	5
 429 0049 03       		.byte	3
 430 004a 03       		.byte	3
 431 004b 03       		.byte	3
 432 004c 03       		.byte	3
 433 004d 03       		.byte	3
ARM GAS  C:\Users\admin\AppData\Local\Temp\ccZEVLam.s 			page 14


 434 004e 05       		.byte	5
 435 004f 06       		.byte	6
 436 0050 09       		.byte	9
 437 0051 0B       		.byte	11
 438 0052 0E       		.byte	14
 439 0053 12       		.byte	18
 440 0054 16       		.byte	22
 441 0055 1A       		.byte	26
 442 0056 1F       		.byte	31
 443 0057 24       		.byte	36
 444 0058 2A       		.byte	42
 445 0059 30       		.byte	48
 446 005a 36       		.byte	54
 447 005b 3D       		.byte	61
 448 005c 43       		.byte	67
 449 005d 4A       		.byte	74
 450 005e 51       		.byte	81
 451 005f 59       		.byte	89
 452 0060 60       		.byte	96
 453 0061 68       		.byte	104
 454 0062 70       		.byte	112
 455 0063 78       		.byte	120
 456              		.type	WaveDAC_2_wave2, %object
 457              		.size	WaveDAC_2_wave2, 100
 458              	WaveDAC_2_wave2:
 459 0064 80       		.byte	-128
 460 0065 84       		.byte	-124
 461 0066 8A       		.byte	-118
 462 0067 8F       		.byte	-113
 463 0068 94       		.byte	-108
 464 0069 98       		.byte	-104
 465 006a 9E       		.byte	-98
 466 006b A2       		.byte	-94
 467 006c A8       		.byte	-88
 468 006d AC       		.byte	-84
 469 006e B2       		.byte	-78
 470 006f B6       		.byte	-74
 471 0070 BC       		.byte	-68
 472 0071 C0       		.byte	-64
 473 0072 C6       		.byte	-58
 474 0073 CA       		.byte	-54
 475 0074 D0       		.byte	-48
 476 0075 D5       		.byte	-43
 477 0076 DA       		.byte	-38
 478 0077 DE       		.byte	-34
 479 0078 E4       		.byte	-28
 480 0079 E8       		.byte	-24
 481 007a EE       		.byte	-18
 482 007b F2       		.byte	-14
 483 007c F8       		.byte	-8
 484 007d FC       		.byte	-4
 485 007e F8       		.byte	-8
 486 007f F2       		.byte	-14
 487 0080 EE       		.byte	-18
 488 0081 E8       		.byte	-24
 489 0082 E4       		.byte	-28
 490 0083 DE       		.byte	-34
ARM GAS  C:\Users\admin\AppData\Local\Temp\ccZEVLam.s 			page 15


 491 0084 DA       		.byte	-38
 492 0085 D4       		.byte	-44
 493 0086 D0       		.byte	-48
 494 0087 CA       		.byte	-54
 495 0088 C6       		.byte	-58
 496 0089 C0       		.byte	-64
 497 008a BC       		.byte	-68
 498 008b B6       		.byte	-74
 499 008c B2       		.byte	-78
 500 008d AD       		.byte	-83
 501 008e A8       		.byte	-88
 502 008f A2       		.byte	-94
 503 0090 9E       		.byte	-98
 504 0091 98       		.byte	-104
 505 0092 94       		.byte	-108
 506 0093 8F       		.byte	-113
 507 0094 8A       		.byte	-118
 508 0095 84       		.byte	-124
 509 0096 80       		.byte	-128
 510 0097 7A       		.byte	122
 511 0098 76       		.byte	118
 512 0099 70       		.byte	112
 513 009a 6B       		.byte	107
 514 009b 66       		.byte	102
 515 009c 61       		.byte	97
 516 009d 5D       		.byte	93
 517 009e 58       		.byte	88
 518 009f 53       		.byte	83
 519 00a0 4E       		.byte	78
 520 00a1 49       		.byte	73
 521 00a2 44       		.byte	68
 522 00a3 3E       		.byte	62
 523 00a4 39       		.byte	57
 524 00a5 34       		.byte	52
 525 00a6 2F       		.byte	47
 526 00a7 2A       		.byte	42
 527 00a8 25       		.byte	37
 528 00a9 21       		.byte	33
 529 00aa 1C       		.byte	28
 530 00ab 17       		.byte	23
 531 00ac 12       		.byte	18
 532 00ad 0D       		.byte	13
 533 00ae 08       		.byte	8
 534 00af 03       		.byte	3
 535 00b0 08       		.byte	8
 536 00b1 0D       		.byte	13
 537 00b2 12       		.byte	18
 538 00b3 17       		.byte	23
 539 00b4 1C       		.byte	28
 540 00b5 21       		.byte	33
 541 00b6 25       		.byte	37
 542 00b7 2A       		.byte	42
 543 00b8 2F       		.byte	47
 544 00b9 34       		.byte	52
 545 00ba 39       		.byte	57
 546 00bb 3E       		.byte	62
 547 00bc 44       		.byte	68
ARM GAS  C:\Users\admin\AppData\Local\Temp\ccZEVLam.s 			page 16


 548 00bd 49       		.byte	73
 549 00be 4E       		.byte	78
 550 00bf 53       		.byte	83
 551 00c0 58       		.byte	88
 552 00c1 5D       		.byte	93
 553 00c2 61       		.byte	97
 554 00c3 66       		.byte	102
 555 00c4 6B       		.byte	107
 556 00c5 70       		.byte	112
 557 00c6 76       		.byte	118
 558 00c7 7A       		.byte	122
 559              		.bss
 560              		.set	.LANCHOR0,. + 0
 561              		.type	WaveDAC_2_Wave1Chan, %object
 562              		.size	WaveDAC_2_Wave1Chan, 1
 563              	WaveDAC_2_Wave1Chan:
 564 0000 00       		.space	1
 565              		.type	WaveDAC_2_Wave2Chan, %object
 566              		.size	WaveDAC_2_Wave2Chan, 1
 567              	WaveDAC_2_Wave2Chan:
 568 0001 00       		.space	1
 569              		.type	WaveDAC_2_Wave1TD, %object
 570              		.size	WaveDAC_2_Wave1TD, 1
 571              	WaveDAC_2_Wave1TD:
 572 0002 00       		.space	1
 573              		.type	WaveDAC_2_Wave2TD, %object
 574              		.size	WaveDAC_2_Wave2TD, 1
 575              	WaveDAC_2_Wave2TD:
 576 0003 00       		.space	1
 577              		.type	WaveDAC_2_initVar, %object
 578              		.size	WaveDAC_2_initVar, 1
 579              	WaveDAC_2_initVar:
 580 0004 00       		.space	1
 581              		.text
 582              	.Letext0:
 583              		.file 2 "Generated_Source\\PSoC5\\cytypes.h"
 584              		.file 3 "Generated_Source\\PSoC5/WaveDAC_2_VDAC8.h"
 585              		.file 4 "Generated_Source\\PSoC5/CYDMAC.H"
 586              		.file 5 "Generated_Source\\PSoC5/WaveDAC_2_Wave1_DMA_dma.h"
 587              		.file 6 "Generated_Source\\PSoC5/WaveDAC_2_Wave2_DMA_dma.h"
