:400000000010002011000000F1010000F101000010B500F0F5F8C04670B5134C23688022D20213432360182000F010FA22680F4B134023600E4A0F4B1A6010220E4B1A6078
:40004000802212060D4B1A60002525600C4A0D4B1A600D49092000F0DDF9092000F0CEF90A4B1D6070BDC04600010B40FFFFFBFF0600008004010B400C02024008010B403A
:40008000CF000080000002405D0600000C020B4010B572B600240FE01C486200131959000B00411889881A5AC31858880004104300F098F80134E4B2012CEDD999231B0494
:4000C000134A1360EE210902124A1160124A1360124A1360124A1360124A117806230B43DBB213702023104A13601049104A1160104A1360C02252030F4B1A60D822120157
:400100000E4B1A60FFF788FF10BDC046E0070000000001400C00014000500F4010500F4030500F4000700F400000044080110300080004401800044008010440080304402F
:4001400010B5064C2378002B07D1054B002B02D0044800E000BF0123237010BD4001002000000000DC070000084B10B5002B03D00749084800E000BF07480368002B00D1BF
:4001800010BD064B002BFBD09847F9E70000000044010020DC070000C00000200000000010B500F085F810BD10B5FFF7F9FF012000F0BAFA012000F0A3FA00F009F9041E0B
:4001C000FBD000F093F8712C05D100F0B9FAC043C0B200F0A9FA00F09FFAC043C0B200F08FFAEAE710B50A00002100F0EFFA10BD10B500F0BFFA03680C2B00D1FEE7FEE712
:4002000070B50F4E0F4D13E029686B68AC68002202E001C901C30432A242FAD1E868002202E0002102C304328242FAD11035013E002EE9D100F0A4FAFFF7B6FFFEE7C0466F
:40024000010000004008000010B500230AE0032B03D89A000949505800E009489900094A885001332F2BF2D9FFF712FF8022D205116801230B43136010BDC04600000000C7
:40028000F10100000000002010B500F08BF810BD10B500F039F810BD10B5044A1368802109060B431360FFF7EFFF10BD0000074010B5064B1B78002B04D1FFF7E9FF0122D3
:4002C000024B1A70FFF7E8FF10BDC0465C010020014B18687047C04640030740024B1B680F2018407047C04608030740044B1B680F221340082BF9D0024B18607047C046AD
:400300000802074040020740134A144B1A600023134A13601349144A1160144A14490A6007201449086014490B6006381349086013490A60134A1360134A1360134A13607E
:40034000134A1360134A1360134A1360134A13601268134B1A8070470B000002000007404000074001000A004800074007000080000307400403074010030740440007409B
:400380000002074004020740880E0740C80E0740480F0740080F0740C80F0740880F07405E010020064A1168064B0B40902109040B431360044B1A88044B1A607047C046DB
:4003C00000000140FFFF0FFF5E010020880F074010B5FFF783FF002802D0FFF779FF00E00020054B1A68D8239B001A4203D01A00014B1A60002010BDC00F07401F2318409A
:400400001E3B8340014A13607047C04600E100E001BE704770B504000D001F2802D90020FFF7F6FF1034A40080239B059C4664442068256070BDC04610B5034B1B7B584352
:4004400000F086F910BDC046C4000020F0B557464E46C0B483B0040000F084F90190E71E2D2F74D83F4B1B78DBB29C4208D83E4B1B78DBB29A463D4B1B78DBB2994631E0A1
:400480003B4B1B78DBB29C4208D83A4B1B78DBB29A46394B1B78DBB2994623E0374B1B78DBB29C4208D8364B1B78DBB29A46354B1B78DBB2994615E0334B1B78DBB29C42FC
:4004C00008D8324B1B78DBB29A46314B1B78DBB2994607E02F4B1B78DBB29A462E4B1B78DBB299462D4BDE5D2F2E09D92A2C07D919222B4B1A60052000F02AF9192503E09F
:40050000274B1D683F231D40B54206D9234BDA5D234B1A60052000F01BF91F4B9C4664442378DBB21F4A13601F4B52461A601F4B4A461A600520FFF77FFFB5420AD2174BC3
:40054000DA5D174B1A60052000F002F902E00020FFF75EFF019800F009F903B00CBC91469A46F0BDC0F1FF0FC1F1FF0FC2F1FF0FC3F1FF0FC4F1FF0FC5F1FF0FC6F1FF0F4B
:40058000C7F1FF0FC8F1FF0FC9F1FF0FCAF1FF0FCBF1FF0FCCF1FF0FCDF1FF0FEC0700002CFF0B4028FF0B401CFF0B4020FF0B40034B1868C0231B02184000D00120704743
:4005C00000010B4010B500F0CDF8044A1368C02109020B43136000F0C9F810BD00010B4010B500F0BFF808490A68084B1A408024E40122430A600A681340802212021343F0
:400600000B6000F0B3F810BD00010B40FF3FFFFF70B5050000F0A6F80400FFF7C9FF002803D0FFF7DDFF012100E0002108482840084A1568084B2B40184310601368012940
:4006400001D1FFF7BFFF200000F090F870BDC0460404040010020B40FBFBFBFF10B5244B1B685B0715D5234B1B685B070ED5224BD969042001401F4C22688A432260DA69FC
:400680008243DA611B69002B00D098470420FFF7BFFF174B1B685B0518D5164B1B685B0510D5154BD9698022D2001140114802688A430260D969114A0A40DA615B69002B3F
:4006C00000D098478020C000FFF7A2FF084B1B685B030CD5074B1B685B0304D5064B9B69002B00D098478020C002FFF791FF10BD10020B40D800002060010020FFFBFFFF81
:4007000004490A68D2B240239A438001184010430860704700010440024B186880090123184070470401044004490A68D2B204239A438000184010430860704700000440FF
:40074000024B18688008012318407047040004400230800804D0C0460138FDD1C046C046C0467047EFF3108072B6704780F310887047C046014B18687047C0463C01002046
:400780000E4B70B500251E000D4CE41AA410A54204D0AB00F35898470135F8E700F03EF8084B00251E00084CE41AA410A54204D0AB00F35898470135F8E770BD2808000004
:4007C00028080000280800003008000003008218934202D019700133FAE770470000000000300F40000400400F400004030405060708090A0B0C0E0F1011121314151617AE
:4008000018191B1C1D1E1F2021222325262728292A2B2E2F3031323334354300F8B5C046F8BC08BC9E4670476901000049020000F8B5C046F8BC08BC9E4670474101000006
:4008400050080000C0000020800000004000000000000000010000000000E02EC05D00001800000000366E010404040000000000000000000000000000000000000000008B
:400880000000000000000000000000001A08000000000000000000000000000000000000000000000000000000000000000000000000000000000000000000000000000016
:4008C000000000000000000000000000DC000020000000000000000000000000000000000000000000000000000000000000000000000000000000000000000000000000FC
:4009000000000000000000000000000000000000000000000000000000000000000000000000000000000000000000000000000000000000000000000000000000000000B7
:400940000000000000000000000000000000000000000000000000000000000000000000000000000000000000000000000000000000000000000000000000000000000077
:400980000000000000000000000000000000000000000000000000000000000000000000000000000000000000000000000000000000000000000000000000000000000037
:4009C00000000000000000000000000000000000000000000000000000000000000000000000000000000000000000000000000000000000000000000000000000000000F7
:0200000490303A
:02000000B99FA6
:0200000490402A
:200000000000000000000000000000000000000000000000000000000000000000000000E0
:0200000490501A
:0C000000000204C81193110104CACB32A5
:0200000490600A
:0100000001FE
:00000001FF